:100000000C942A000C9447000C9447000C94121C8A
:100010000C94B91B0C9449220C947C220C9447003C
:100020000C9447000C9447000C94D01A0C94771A47
:100030000C9447000C9447000C9447000C94470024
:100040000C94C8080C9447000C9447000C9447008B
:100050000C94470011241FBECFE5D4E0DEBFCDBF16
:1000600011E0A0E6B0E0E0EAF7E402C005900D92EE
:10007000A438B107D9F711E0A4E8B1E001C01D929E
:10008000A33CB107E1F70E94AF220C94CE230C945D
:100090000000EF92FF920F931F937B018C0120E0F1
:1000A00030E040E05FE40E94F50388238CF0C80153
:1000B000B70120E030E040E05FE40E94C1010E940F
:1000C00055049B01AC01205030404040504806C0D0
:1000D000C801B7010E9455049B01AC01B901CA01D6
:1000E0001F910F91FF90EF900895A0E0B0E0EBE733
:1000F000F0E00C946623DC012B01FA019C91923014
:1001000008F439C1EB018881823008F433C194309E
:1001100069F4843009F02FC111969C91119789815F
:10012000981709F428C1ACE7B0E025C1843009F480
:1001300021C18230A9F4923009F01DC19A01AD01AC
:1001400088E0EA010990AE01E90109929E0181501F
:10015000C1F7E201898111969C918923818308C1AD
:10016000923009F407C112962D903C901397EB0141
:100170008A819B811496AD90BD90CD90DC901797AD
:10018000EC80FD800E811F819101281B390BB90184
:1001900037FF04C066277727621B730B6032710537
:1001A0000CF061C0121613066CF537014801062EDB
:1001B00004C096948794779467940A94D2F721E0C8
:1001C00030E040E050E004C0220F331F441F551FB1
:1001D0006A95D2F721503040404050402E213F21B7
:1001E00040235123211531054105510521F021E01E
:1001F00030E040E050E079018A01E628F72808293C
:1002000019293CC0232BD1F1260E371E350146019A
:10021000062E04C096948794779467940A94D2F734
:1002200021E030E040E050E004C0220F331F441FC3
:10023000551F6A95D2F721503040404050402A2146
:100240003B214C215D21211531054105510521F04E
:1002500021E030E040E050E059016A01A628B728CB
:10026000C828D9280BC0821593052CF01C01AA249C
:10027000BB24650103C0EE24FF24870111969C91E5
:10028000D20111968C91981709F445C0992339F041
:10029000A80197012A193B094C095D0906C0A6016E
:1002A00095012E193F09400B510B57FD08C01182D3
:1002B0003382228224833583468357831DC081E0A5
:1002C00081833382228288279927DC01821B930B4A
:1002D000A40BB50B84839583A683B7830DC0220F2F
:1002E000331F441F551F24833583468357838281E0
:1002F000938101979383828324813581468157813D
:10030000DA01C9010197A109B1098F5F9F4FAF4F72
:10031000BF4328F30BC0918333822282EA0CFB1C7B
:100320000C1D1D1DE482F5820683178383E0808304
:10033000248135814681578157FF1AC0C901AA27F8
:1003400097FDA095BA2F81709070A070B0705695EF
:10035000479537952795822B932BA42BB52B848318
:100360009583A683B7838281938101969383828349
:10037000DF0101C0D201CD01CDB7DEB7E2E10C94BF
:100380008223A0E2B0E0E7ECF1E00C9472236983F1
:100390007A838B839C832D833E834F835887E9E048
:1003A000EE2EF12CEC0EFD1ECE010196B7010E943F
:1003B00046068E010F5E1F4FCE010596B8010E94C2
:1003C00046068A8991E089278A8BC701B801AE0168
:1003D000475E5F4F0E9475000E947105A096E6E09F
:1003E0000C948E23A0E2B0E0E8EFF1E00C947223CD
:1003F00069837A838B839C832D833E834F835887C5
:10040000F9E0EF2EF12CEC0EFD1ECE010196B701A6
:100410000E9446068E010F5E1F4FCE010596B80161
:100420000E944606C701B801AE01475E5F4F0E94B9
:1004300075000E947105A096E6E00C948E23A0E260
:10044000B0E0E5E2F2E00C94662369837A838B8363
:100450009C832D833E834F835887CE010196BE0136
:10046000675F7F4F0E944606CE010596BE016F5E14
:100470007F4F0E9446069985923088F089898230A4
:10048000C8F0943019F4823051F404C0843029F457
:10049000923081F48CE790E0C6C0923049F420E0BD
:1004A0009A858A89981321E02A87CE010996BBC0D4
:1004B000823049F420E09A858A89981321E02A8BBA
:1004C000CE014196B0C02D843E844F8458886D88FB
:1004D0007E888F88988CEE24FF248701AA24BB2471
:1004E000650140E050E060E070E0E0E0F0E0C10174
:1004F00081709070892BE9F0E60CF71C081D191D1E
:100500009A01AB012A0D3B1D4C1D5D1D80E090E062
:10051000A0E0B0E0E614F7040805190520F481E036
:1005200090E0A0E0B0E0BA01A901480F591F6A1F8E
:100530007B1FAA0CBB1CCC1CDD1C97FE08C081E0F5
:1005400090E0A0E0B0E0A82AB92ACA2ADB2A3196B6
:10055000E032F10549F0660C771C881C991C569412
:10056000479437942794C3CFFA85EA892B893C892D
:100570008B859C85280F391F2E5F3F4F17C0CA01FE
:1005800081709070892B61F016950795F794E79428
:1005900080E090E0A0E0B0E8E82AF92A0A2B1B2BC3
:1005A00076956795579547952F5F3F4F77FDE7CF36
:1005B0000CC0440F551F661F771F17FD4160EE0CDE
:1005C000FF1C001F111F21503040403090E05907A0
:1005D00090E0690790E4790760F32B8F3C8FDB0193
:1005E000CA018F779070A070B07080349105A1051A
:1005F000B10561F447FD0AC0E114F10401051105DC
:1006000029F0405C5F4F6F4F7F4F40781A8EFE1786
:1006100011F081E08A8F4D8F5E8F6F8F78A383E01A
:10062000898FCE0149960E947105A096E2E10C9453
:100630008223A8E1B0E0EFE1F3E00C946E2369833C
:100640007A838B839C832D833E834F835887B9E0C5
:10065000EB2EF12CEC0EFD1ECE010196B7010E948F
:1006600046068E010F5E1F4FCE010596B8010E940F
:1006700046062985223008F47EC03989323010F4CC
:10068000B8017CC08A859A8989278A87243011F02D
:10069000223031F4231709F06EC06CE770E06EC0B1
:1006A000343039F41D861E861F86188A1C861B86E8
:1006B00004C0323021F484E08987B7015FC02B8504
:1006C0003C858B899C89281B390B3C872B87ED84C3
:1006D000FE840F851889AD88BE88CF88D88CEA142F
:1006E000FB040C051D0540F4EE0CFF1C001F111F40
:1006F000215030403C872B8720E030E040E050E044
:1007000080E090E0A0E0B0E460E070E0EA14FB0478
:100710000C051D0540F0282B392B4A2B5B2BEA18C2
:10072000FB080C091D09B695A79597958795EE0CC2
:10073000FF1C001F111F6F5F7F4F6F31710531F775
:10074000DA01C9018F779070A070B0708034910584
:10075000A105B10561F427FD0AC0E114F10401050A
:10076000110529F0205C3F4F4F4F5F4F20782D87B8
:100770003E874F87588BBE01675F7F4FCB010E943A
:1007800071056896EAE00C948A23A8E1B0E0EBECEE
:10079000F3E00C94722369837A838B839C832D838B
:1007A0003E834F83588789E0E82EF12CEC0EFD1E26
:1007B000CE010196B7010E9446068E010F5E1F4FC3
:1007C000CE010596B8010E9446068985823040F028
:1007D0008989823028F0C701B8010E94BE0601C095
:1007E0008FEF6896E6E00C948E23A8E1B0E0EBEF83
:1007F000F3E00C94722369837A838B839C832D832B
:100800003E834F83588789E0E82EF12CEC0EFD1EC5
:10081000CE010196B7010E9446068E010F5E1F4F62
:10082000CE010596B8010E9446068985823040F0C7
:100830008989823028F0C701B8010E94BE0601C034
:100840008FEF6896E6E00C948E23A8E1B0E0EBE22F
:10085000F4E00C94722369837A838B839C832D83C9
:100860003E834F83588789E0E82EF12CEC0EFD1E65
:10087000CE010196B7010E9446068E010F5E1F4F02
:10088000CE010596B8010E9446068985823040F067
:100890008989823028F0C701B8010E94BE0601C0D4
:1008A00081E06896E6E00C948E23ACE0B0E0EBE5E6
:1008B000F4E00C94762369837A838B839C83CE0146
:1008C0000196BE016B5F7F4F0E9446068D8182308C
:1008D00061F1823050F1843021F48E81882351F10E
:1008E0002EC02F81388537FD20C06E812F31310514
:1008F0001CF06623F9F023C08EE190E0821B930B7D
:1009000029853A854B855C8504C056954795379572
:1009100027958A95D2F76623B1F05095409530958A
:1009200021953F4F4F4F5F4F0EC020E030E040E039
:1009300050E009C02FEF3FEF4FEF5FE704C020E02A
:1009400030E040E050E8B901CA012C96E2E00C9496
:100950009223A8E0B0E0EFEAF4E00C946E237B0170
:100960008C01611571058105910519F482E0898377
:1009700060C083E089838EE1C82ED12CDC82CB82DB
:10098000ED82FE820F831887C801B7010E942205FD
:10099000FC013197F7FF3BC0222733272E1B3F0B6B
:1009A00057016801022E04C0D694C794B794A79447
:1009B0000A94D2F740E050E060E070E081E090E01F
:1009C000A0E0B0E004C0880F991FAA1FBB1F2A95A2
:1009D000D2F70197A109B1098E219F21A023B1234C
:1009E0000097A105B10521F041E050E060E070E022
:1009F0004A295B296C297D294D835E836F83788723
:100A00008EE190E08E1B9F0B9C838B8312C03097EE
:100A100081F00E2E04C0EE0CFF1C001F111F0A9463
:100A2000D2F7ED82FE820F831887CE1ADF0ADC82AE
:100A3000CB821A82CE0101960E9471052896EAE0C7
:100A40000C948A23EF92FF920F931F937B018C01EA
:100A500080E0E81680E0F80681E0080780E01807EB
:100A600088F48FEFE816F1040105110531F028F044
:100A700088E090E0A0E0B0E017C080E090E0A0E067
:100A8000B0E012C080E0E81680E0F80680E00807D9
:100A900081E0180728F088E190E0A0E0B0E004C011
:100AA00080E190E0A0E0B0E020E230E040E050E003
:100AB000281B390B4A0B5B0B04C016950795F7945E
:100AC000E7948A95D2F7F701EC57FF4F8081281BF6
:100AD000310941095109C9011F910F91FF90EF9010
:100AE0000895DF92EF92FF920F931F93FC01E48031
:100AF000F58006811781D1808081823048F480E0C2
:100B000090E0A0E1B0E0E82AF92A0A2B1B2BA5C04F
:100B1000843009F49FC0823021F4EE24FF24870141
:100B200005C0E114F1040105110519F4E0E0F0E05D
:100B300096C0628173819FEF623879070CF05BC0C9
:100B400022E83FEF261B370B2A3131052CF020E03D
:100B500030E040E050E02AC0B801A701022E04C0F6
:100B600076956795579547950A94D2F781E090E07E
:100B7000A0E0B0E004C0880F991FAA1FBB1F2A95F0
:100B8000D2F70197A109B1098E219F21A023B1239A
:100B90000097A105B10521F081E090E0A0E0B0E070
:100BA0009A01AB01282B392B4A2B5B2BDA01C901A7
:100BB0008F779070A070B07080349105A105B10559
:100BC00039F427FF09C0205C3F4F4F4F5F4F04C0EF
:100BD000215C3F4F4F4F5F4FE0E0F0E02030A0E05E
:100BE0003A07A0E04A07A0E45A0710F0E1E0F0E07D
:100BF00079018A0127C06038710564F5FB01E1586D
:100C0000FF4FD801C7018F779070A070B07080340B
:100C10009105A105B10539F4E7FE0DC080E490E02F
:100C2000A0E0B0E004C08FE390E0A0E0B0E0E80E08
:100C3000F91E0A1F1B1F17FF05C016950795F7948D
:100C4000E794319687E016950795F794E7948A958F
:100C5000D1F705C0EE24FF248701EFEFF0E06E2FFF
:100C6000679566276795902F9F77D794DD24D79453
:100C70008E2F8695492F462B582F5D29B701CA0123
:100C80001F910F91FF90EF90DF900895FC01DB0121
:100C9000408151812281622F6F7770E0221F2227CD
:100CA000221F9381892F880F822B282F30E0991FD4
:100CB0009927991F11969C93119721153105A9F534
:100CC000411551056105710511F482E037C082E8D4
:100CD0009FEF13969C938E9312979A01AB0167E056
:100CE000220F331F441F551F6A95D1F783E08C9361
:100CF0000DC0220F331F441F551F12968D919C91DA
:100D00001397019713969C938E931297203080E04F
:100D1000380780E0480780E4580758F314962D936D
:100D20003D934D935C93179708952F3F310579F4C8
:100D3000411551056105710519F484E08C930895FE
:100D400064FF03C081E08C9312C01C9210C02F5727
:100D5000304013963C932E93129783E08C9387E058
:100D6000440F551F661F771F8A95D1F7706414963C
:100D70004D935D936D937C93179708951F93DC01BA
:100D8000FB019C91923008F447C08081823008F4C6
:100D900043C0943051F411961C91843099F58181AF
:100DA000682F70E0611B71093FC0843021F09230E0
:100DB00031F48230B9F18181882389F12DC01196F7
:100DC0001C9111978230F1F081811817D9F4129695
:100DD0002D913C911397828193818217930794F010
:100DE00028173907BCF014968D919D910D90BC91F8
:100DF000A02D2481358146815781281739074A075C
:100E00005B0718F4112341F00AC082179307A40767
:100E1000B50740F4112319F061E070E005C06FEFF1
:100E20007FEF02C060E070E0CB011F910895DF9377
:100E3000CF93CDB7DEB7A7E2B0E0E7E2F0E0808184
:100E400080648C93A7E2B0E0E7E2F0E080818F77E6
:100E50008C93A7E2B0E0E7E2F0E080818F7D8C9395
:100E6000A7E2B0E0E7E2F0E08081887F8C93A7E220
:100E7000B0E0E7E2F0E0808187608C93A6E2B0E02A
:100E8000E6E2F0E0808180688C93CF91DF91089555
:100E9000DF93CF930F92CDB7DEB78983A7E2B0E09F
:100EA000E7E2F0E08081807E8C93A7E2B0E0E7E2A9
:100EB000F0E090818981892B8C93A6E2B0E0E6E294
:100EC000F0E0808180648C93E6E2F0E0808182959E
:100ED0008F70882F90E0817090700097A9F3A6E240
:100EE000B0E0E6E2F0E0808180618C93E4E2F0E043
:100EF000808191810F90CF91DF910895DF93CF93FF
:100F0000CDB7DEB728970FB6F894DEBF0FBECDBFC2
:100F10008E8378876F831A821B821C821D821982BE
:100F200080918E01882309F05CC081E080938E015E
:100F3000A7E2B0E0E7E2F0E08081807E8C93A7E258
:100F4000B0E0E7E2F0E090818E81892B8C93A6E2FD
:100F5000B0E0E6E2F0E0808180648C930BC08A818F
:100F60009B81AC81BD810196A11DB11D8A839B83AC
:100F7000AC83BD83E6E2F0E0808182958F70882F9C
:100F800090E081709070009761F48A819B81AC81C0
:100F9000BD81803523EC920720E0A20720E0B20754
:100FA000F1F68A819B81AC81BD81803523EC92076B
:100FB00020E0A20720E0B20719F481E0898313C082
:100FC000A6E2B0E0E6E2F0E0808180618C93E4E2AA
:100FD000F0E080819181EF81F885808310928E010D
:100FE00002C081E08983898128960FB6F894DEBF1C
:100FF0000FBECDBFCF91DF910895DF93CF9300D087
:1010000000D000D0CDB7DEB78A837C836B835E834C
:101010004D83198280918E018823D1F58B819C812B
:10102000009721F08D819E81009719F482E08983D9
:1010300031C081E080938E01109290018B819C8160
:1010400090938501809384018D819E819093870187
:1010500080938601A7E2B0E0E7E2F0E08081807E45
:101060008C93A7E2B0E0E7E2F0E090818A81892BDF
:101070008C93A6E2B0E0E6E2F0E0808180648C939D
:10108000A6E2B0E0E6E2F0E0808188608C9302C0E6
:1010900081E08983898126960FB6F894DEBF0FBE62
:1010A000CDBFCF91DF910895DF93CF9300D000D0D3
:1010B000CDB7DEB79B838A8319828A819B81009793
:1010C00029F482E0898389818C835AC080918E01C2
:1010D000882321F481E080938E0150C081E08983D0
:1010E00081E080939001EA81FB81808191819093DE
:1010F000890180938801EA81FB81828193819093A9
:101100008D0180938C01EA81FB818481882F90E09E
:1011100090938B0180938A01EA81FB81858196817E
:10112000909387018093860110928F01A7E2B0E02F
:10113000E7E2F0E08081807E8C93A7E2B0E0E7E216
:10114000F0E04081209188013091890180918F01E8
:10115000882F90E0F901E80FF91F8081842B8C9390
:10116000A6E2B0E0E6E2F0E0808180648C93A6E243
:10117000B0E0E6E2F0E0808188608C9389818C8326
:101180008C810F900F900F900F90CF91DF91089569
:101190001F920F920FB60F9211242F933F934F93EC
:1011A0005F936F937F938F939F93AF93BF93EF93CF
:1011B000FF93DF93CF93CDB7DEB780919001882363
:1011C000C1F4A0918401B0918501E4E2F0E0808156
:1011D00091818C9310928E01E0918601F0918701AC
:1011E0000995A6E2B0E0E6E2F0E08081877F8C938B
:1011F0005AC080919001813009F055C020918C0136
:1012000030918D0180918F01882F90E0880F991F78
:10121000D901A80FB91FE4E2F0E080819181119615
:101220009C938E9380918F018F5F80938F0180912B
:101230008F01882F90E09C0180918A0190918B0111
:101240002817390779F410928E01E0918601F09108
:1012500087010995A6E2B0E0E6E2F0E08081877FB1
:101260008C9321C0A7E2B0E0E7E2F0E08081807ECD
:101270008C93A7E2B0E0E7E2F0E0408120918801A2
:101280003091890180918F01882F90E0F901E80F5A
:10129000F91F8081842B8C93A6E2B0E0E6E2F0E0B7
:1012A000808180648C93CF91DF91FF91EF91BF910A
:1012B000AF919F918F917F916F915F914F913F91EE
:1012C0002F910F900FBE0F901F9018950F931F93A3
:1012D000DF93CF93CDB7DEB7C356D0400FB6F894A7
:1012E000DEBF0FBECDBFFE01ED59FF4F808383E00F
:1012F00060E040E00E94D01683E061E040E00E94A0
:10130000D016FE01E15AFF4F80E090E0A0E8BFE375
:1013100080839183A283B3838E01055A1F4FFE0100
:10132000E15AFF4F608171818281938120E030E03A
:101330004AEF54E40E941F02DC01CB01F8018083D4
:101340009183A283B383FE01E55AFF4F60817181CF
:101350008281938120E030E040E85FE30E94250431
:10136000882344F4FE01E75AFF4F81E090E0918327
:10137000808364C0FE01E55AFF4F608171818281E4
:10138000938120E03FEF4FE757E40E94C503181612
:101390000CF043C0FE01E15AFF4F608171818281F0
:1013A000938120E030E040E251E40E941F02DC0122
:1013B000CB018E01075A1F4FBC01CD010E9449008D
:1013C000DC01CB01F801918380831FC0FE01E95A43
:1013D000FF4F88EC90E091838083FE01E95AFF4F34
:1013E000808191810197F1F7FE01E95AFF4F9183C6
:1013F0008083DE01A75ABF4FFE01E75AFF4F80816D
:101400009181019711969C938E93FE01E75AFF4FAD
:10141000808191810097D1F627C08E01075A1F4F16
:10142000FE01E55AFF4F60817181828193810E94A4
:101430004900DC01CB01F80191838083DE01AB5AC6
:10144000BF4FFE01E75AFF4F808191818D939C939E
:10145000FE01EB5AFF4F808191810197F1F7FE0168
:10146000EB5AFF4F9183808383E062E041E00E946A
:10147000D016FE01EF5AFF4F80E090E0A0E8BFE3F6
:1014800080839183A283B3838E01035B1F4FFE0190
:10149000EF5AFF4F608171818281938120E030E0BB
:1014A0004AEF54E40E941F02DC01CB01F801808363
:1014B0009183A283B383FE01E35BFF4F608171815F
:1014C0008281938120E030E040E85FE30E942504C0
:1014D000882344F4FE01E55BFF4F81E090E09183B7
:1014E000808364C0FE01E35BFF4F60817181828174
:1014F000938120E03FEF4FE757E40E94C5031816A1
:101500000CF043C0FE01EF5AFF4F60817181828170
:10151000938120E030E040E251E40E941F02DC01B0
:10152000CB018E01055B1F4FBC01CD010E9449001C
:10153000DC01CB01F801918380831FC0FE01E75BD2
:10154000FF4F88EC90E091838083FE01E75BFF4FC3
:10155000808191810197F1F7FE01E75BFF4F918355
:101560008083DE01A55BBF4FFE01E55BFF4F8081FD
:101570009181019711969C938E93FE01E55BFF4F3D
:10158000808191810097D1F627C08E01055B1F4FA6
:10159000FE01E35BFF4F60817181828193810E9434
:1015A0004900DC01CB01F80191838083DE01A95B56
:1015B000BF4FFE01E55BFF4F808191818D939C932E
:1015C000FE01E95BFF4F808191810197F1F7FE01F8
:1015D000E95BFF4F91838083FE01ED59FF4F8081CE
:1015E00082958F70982F917082E064E0492F0E945D
:1015F000D016FE01ED59FF4F808182958695877048
:10160000982F917082E065E0492F0E94D016FE016C
:10161000ED59FF4F80818295869586958370982F2E
:10162000917082E066E0492F0E94D016FE01ED59CC
:10163000FF4F8081982F991F9927991F82E067E0BB
:10164000492F0E94D016FE01ED5BFF4F80E090E035
:10165000A0E8BFE380839183A283B3838E01015C02
:101660001F4FFE01ED5BFF4F60817181828193818D
:1016700020E030E04AEF54E40E941F02DC01CB017D
:10168000F80180839183A283B383FE01FF9660817A
:1016900071818281938120E030E040E85FE30E9425
:1016A000250488232CF481E090E09EAF8DAF46C0E6
:1016B000FE01FF96608171818281938120E03FEF7E
:1016C0004FE757E40E94C503181664F5FE01ED5B71
:1016D000FF4F608171818281938120E030E040E2A0
:1016E00051E40E941F02DC01CB01BC01CD010E942C
:1016F0004900DC01CB019EAF8DAF0FC088EC90E0BC
:101700009CAF8BAF8BAD9CAD0197F1F79CAF8BAFCE
:101710008DAD9EAD01979EAF8DAF8DAD9EAD009707
:1017200069F716C0FE01FF96608171818281938105
:101730000E944900DC01CB019EAF8DAF8DAD9EAD07
:101740009AAF89AF89AD9AAD0197F1F79AAF89AF9A
:1017500083E062E040E00E94D01680E090E0A0E8E4
:10176000BFE38DAB9EABAFABB8AF6DA97EA98FA920
:1017700098AD20E030E04AEF54E40E941F02DC0103
:10178000CB0189AB9AABABABBCAB69A97AA98BA9EE
:101790009CA920E030E040E85FE30E942504882314
:1017A0002CF481E090E098AB8FA73FC069A97AA99B
:1017B0008BA99CA920E03FEF4FE757E40E94C503A7
:1017C00018164CF56DA97EA98FA998AD20E030E0E0
:1017D00040E251E40E941F02DC01CB01BC01CD01BB
:1017E0000E944900DC01CB0198AB8FA70FC088ECA9
:1017F00090E09EA78DA78DA59EA50197F1F79EA7C6
:101800008DA78FA598A9019798AB8FA78FA598A9A9
:10181000009769F714C069A97AA98BA99CA90E94AD
:101820004900DC01CB0198AB8FA78FA598A99CA795
:101830008BA78BA59CA50197F1F79CA78BA783E0AD
:1018400062E041E00E94D01680E090E0A0E8BFE3B3
:101850008FA398A7A9A7BAA76FA178A589A59AA5CC
:1018600020E030E04AEF54E40E941F02DC01CB018B
:101870008BA39CA3ADA3BEA36BA17CA18DA19EA1B4
:1018800020E030E040E85FE30E94250488232CF448
:1018900081E090E09AA389A33FC06BA17CA18DA1B8
:1018A0009EA120E03FEF4FE757E40E94C5031816C2
:1018B0004CF56FA178A589A59AA520E030E040E21B
:1018C00051E40E941F02DC01CB01BC01CD010E944A
:1018D0004900DC01CB019AA389A30FC088EC90E0FA
:1018E00098A38F8F8F8D98A10197F1F798A38F8F71
:1018F00089A19AA101979AA389A389A19AA1009786
:1019000069F714C06BA17CA18DA19EA10E94490022
:10191000DC01CB019AA389A389A19AA19E8F8D8F07
:101920008D8D9E8D0197F1F79E8F8D8FFE01ED5964
:10193000FF4F8081982F917082E064E0492F0E94D0
:10194000D016FE01ED59FF4F80818695982F91703A
:1019500082E065E0492F0E94D016FE01ED59FF4F4D
:10196000808186958695982F917082E066E0492F58
:101970000E94D016FE01ED59FF4F80818695869515
:101980008695982F917082E067E0492F0E94D016CB
:1019900080E090E0A0E8BFE3898F9A8FAB8FBC8F87
:1019A000698D7A8D8B8D9C8D20E030E04AEF54E478
:1019B0000E941F02DC01CB018D8B9E8BAF8BB88FF9
:1019C0006D897E898F89988D20E030E040E85FE363
:1019D0000E94250488232CF481E090E09C8B8B8B63
:1019E0003FC06D897E898F89988D20E03FEF4FE75A
:1019F00057E40E94C50318164CF5698D7A8D8B8DBE
:101A00009C8D20E030E040E251E40E941F02DC01A6
:101A1000CB01BC01CD010E944900DC01CB019C8BB4
:101A20008B8B0FC088EC90E09A8B898B89899A897F
:101A30000197F1F79A8B898B8B899C8901979C8BF5
:101A40008B8B8B899C89009769F714C06D897E897F
:101A50008F89988D0E944900DC01CB019C8B8B8B78
:101A60008B899C89988B8F878F8598890197F1F74F
:101A7000988B8F8783E062E040E00E94D01680E080
:101A800090E0A0E8BFE38B879C87AD87BE876B851E
:101A90007C858D859E8520E030E04AEF54E40E94ED
:101AA0001F02DC01CB018F839887A987BA876F81DA
:101AB000788589859A8520E030E040E85FE30E94E0
:101AC000250488232CF481E090E09E838D833FC021
:101AD0006F81788589859A8520E03FEF4FE757E44D
:101AE0000E94C50318164CF56B857C858D859E85F7
:101AF00020E030E040E251E40E941F02DC01CB0113
:101B0000BC01CD010E944900DC01CB019E838D8385
:101B10000FC088EC90E09C838B838B819C81019724
:101B2000F1F79C838B838D819E8101979E838D83AA
:101B30008D819E81009769F714C06F8178858985B2
:101B40009A850E944900DC01CB019E838D838D81A3
:101B50009E819A83898389819A810197F1F79A837B
:101B60008983CD59DF4F0FB6F894DEBF0FBECDBFCE
:101B7000CF91DF911F910F9108950F931F93DF93E2
:101B8000CF93CDB7DEB7C356D0400FB6F894DEBFC3
:101B90000FBECDBFFE01ED59FF4F808383E060E0B3
:101BA00041E00E94D01683E061E040E00E94D01640
:101BB000FE01E15AFF4F80E090E0A0E8BFE38083A0
:101BC0009183A283B3838E01055A1F4FFE01E15A10
:101BD000FF4F608171818281938120E030E04AEF84
:101BE00054E40E941F02DC01CB01F8018083918341
:101BF000A283B383FE01E55AFF4F60817181828128
:101C0000938120E030E040E85FE30E9425048823D0
:101C100044F4FE01E75AFF4F81E090E09183808316
:101C200064C0FE01E55AFF4F60817181828193811A
:101C300020E03FEF4FE757E40E94C50318160CF071
:101C400043C0FE01E15AFF4F60817181828193811F
:101C500020E030E040E251E40E941F02DC01CB01B1
:101C60008E01075A1F4FBC01CD010E944900DC01C3
:101C7000CB01F801918380831FC0FE01E95AFF4F19
:101C800088EC90E091838083FE01E95AFF4F8081C8
:101C900091810197F1F7FE01E95AFF4F918380830B
:101CA000DE01A75ABF4FFE01E75AFF4F80819181A5
:101CB000019711969C938E93FE01E75AFF4F808106
:101CC00091810097D1F627C08E01075A1F4FFE0160
:101CD000E55AFF4F60817181828193810E944900A2
:101CE000DC01CB01F80191838083DE01AB5ABF4F49
:101CF000FE01E75AFF4F808191818D939C93FE01F5
:101D0000EB5AFF4F808191810197F1F7FE01EB5A69
:101D1000FF4F9183808383E062E041E00E94D01610
:101D2000FE01EF5AFF4F80E090E0A0E8BFE3808320
:101D30009183A283B3838E01035B1F4FFE01EF5A91
:101D4000FF4F608171818281938120E030E04AEF12
:101D500054E40E941F02DC01CB01F80180839183CF
:101D6000A283B383FE01E35BFF4F608171818281B7
:101D7000938120E030E040E85FE30E94250488235F
:101D800044F4FE01E55BFF4F81E090E091838083A6
:101D900064C0FE01E35BFF4F6081718182819381AA
:101DA00020E03FEF4FE757E40E94C50318160CF000
:101DB00043C0FE01EF5AFF4F6081718182819381A0
:101DC00020E030E040E251E40E941F02DC01CB0140
:101DD0008E01055B1F4FBC01CD010E944900DC0153
:101DE000CB01F801918380831FC0FE01E75BFF4FA9
:101DF00088EC90E091838083FE01E75BFF4F808158
:101E000091810197F1F7FE01E75BFF4F918380839A
:101E1000DE01A55BBF4FFE01E55BFF4F8081918135
:101E2000019711969C938E93FE01E55BFF4F808195
:101E300091810097D1F627C08E01055B1F4FFE01EF
:101E4000E35BFF4F60817181828193810E94490031
:101E5000DC01CB01F80191838083DE01A95BBF4FD8
:101E6000FE01E55BFF4F808191818D939C93FE0184
:101E7000E95BFF4F808191810197F1F7FE01E95BFA
:101E8000FF4F91838083FE01ED59FF4F8081829542
:101E90008F70982F917082E064E0492F0E94D016D5
:101EA000FE01ED59FF4F8081829586958770982FAE
:101EB000917082E065E0492F0E94D016FE01ED5935
:101EC000FF4F80818295869586958370982F9170BB
:101ED00082E066E0492F0E94D016FE01ED59FF4FC7
:101EE0008081982F991F9927991F82E067E0492FD9
:101EF0000E94D016FE01ED5BFF4F80E090E0A0E86D
:101F0000BFE380839183A283B3838E01015C1F4F63
:101F1000FE01ED5BFF4F608171818281938120E042
:101F200030E04AEF54E40E941F02DC01CB01F801CB
:101F300080839183A283B383FE01FF9660817181C8
:101F40008281938120E030E040E85FE30E94250435
:101F500088232CF481E090E09EAF8DAF46C0FE0157
:101F6000FF96608171818281938120E03FEF4FE78E
:101F700057E40E94C503181664F5FE01ED5BFF4FA0
:101F8000608171818281938120E030E040E251E400
:101F90000E941F02DC01CB01BC01CD010E9449005F
:101FA000DC01CB019EAF8DAF0FC088EC90E09CAF01
:101FB0008BAF8BAD9CAD0197F1F79CAF8BAF8DAD27
:101FC0009EAD01979EAF8DAF8DAD9EAD009769F729
:101FD00016C0FE01FF9660817181828193810E940B
:101FE0004900DC01CB019EAF8DAF8DAD9EAD9AAFA8
:101FF00089AF89AD9AAD0197F1F79AAF89AF83E0C8
:1020000062E040E00E94D01680E090E0A0E8BFE3EC
:102010008DAB9EABAFABB8AF6DA97EA98FA998ADC4
:1020200020E030E04AEF54E40E941F02DC01CB01C3
:1020300089AB9AABABABBCAB69A97AA98BA99CA9BC
:1020400020E030E040E85FE30E94250488232CF480
:1020500081E090E098AB8FA73FC069A97AA98BA9CE
:102060009CA920E03FEF4FE757E40E94C5031816F4
:102070004CF56DA97EA98FA998AD20E030E040E233
:1020800051E40E941F02DC01CB01BC01CD010E9482
:102090004900DC01CB0198AB8FA70FC088EC90E022
:1020A0009EA78DA78DA59EA50197F1F79EA78DA749
:1020B0008FA598A9019798AB8FA78FA598A900978E
:1020C00069F714C069A97AA98BA99CA90E94490043
:1020D000DC01CB0198AB8FA78FA598A99CA78BA7F4
:1020E0008BA59CA50197F1F79CA78BA783E062E0E5
:1020F00041E00E94D01680E090E0A0E8BFE38FA30B
:1021000098A7A9A7BAA76FA178A589A59AA520E045
:1021100030E04AEF54E40E941F02DC01CB018BA3A4
:102120009CA3ADA3BEA36BA17CA18DA19EA120E029
:1021300030E040E85FE30E94250488232CF481E02E
:1021400090E09AA389A33FC06BA17CA18DA19EA121
:1021500020E03FEF4FE757E40E94C50318164CF507
:102160006FA178A589A59AA520E030E040E251E46E
:102170000E941F02DC01CB01BC01CD010E9449007D
:10218000DC01CB019AA389A30FC088EC90E098A34F
:102190008F8F8F8D98A10197F1F798A38F8F89A1C9
:1021A0009AA101979AA389A389A19AA1009769F797
:1021B00014C06BA17CA18DA19EA10E944900DC01ED
:1021C000CB019AA389A389A19AA19E8F8D8F8D8D12
:1021D0009E8D0197F1F79E8F8D8FFE01ED59FF4F78
:1021E0008081982F917082E064E0492F0E94D01680
:1021F000FE01ED59FF4F80818695982F917082E006
:1022000065E0492F0E94D016FE01ED59FF4F8081F5
:1022100086958695982F917082E066E0492F0E94FE
:10222000D016FE01ED59FF4F8081869586958695E3
:10223000982F917082E067E0492F0E94D01680E0CD
:1022400090E0A0E8BFE3898F9A8FAB8FBC8F698D38
:102250007A8D8B8D9C8D20E030E04AEF54E40E9413
:102260001F02DC01CB018D8B9E8BAF8BB88F6D89EC
:102270007E898F89988D20E030E040E85FE30E94FE
:10228000250488232CF481E090E09C8B8B8B3FC04D
:102290006D897E898F89988D20E03FEF4FE757E465
:1022A0000E94C50318164CF5698D7A8D8B8D9C8D17
:1022B00020E030E040E251E40E941F02DC01CB014B
:1022C000BC01CD010E944900DC01CB019C8B8B8BB2
:1022D0000FC088EC90E09A8B898B89899A89019745
:1022E000F1F79A8B898B8B899C8901979C8B8B8BBF
:1022F0008B899C89009769F714C06D897E898F89C5
:10230000988D0E944900DC01CB019C8B8B8B8B89C3
:102310009C89988B8F878F8598890197F1F7988B87
:102320008F8783E062E040E00E94D01680E090E07A
:10233000A0E8BFE38B879C87AD87BE876B857C85D4
:102340008D859E8520E030E04AEF54E40E941F0214
:10235000DC01CB018F839887A987BA876F81788545
:1023600089859A8520E030E040E85FE30E942504FB
:1023700088232CF481E090E09E838D833FC06F81A1
:10238000788589859A8520E03FEF4FE757E40E94E2
:10239000C50318164CF56B857C858D859E8520E0E0
:1023A00030E040E251E40E941F02DC01CB01BC019D
:1023B000CD010E944900DC01CB019E838D830FC0BB
:1023C00088EC90E09C838B838B819C810197F1F753
:1023D0009C838B838D819E8101979E838D838D81CC
:1023E0009E81009769F714C06F81788589859A85E9
:1023F0000E944900DC01CB019E838D838D819E81EB
:102400009A83898389819A810197F1F79A838983D5
:10241000CD59DF4F0FB6F894DEBF0FBECDBFCF91C1
:10242000DF911F910F910895DF93CF93CDB7DEB762
:102430002E970FB6F894DEBF0FBECDBF83E060E0ED
:1024400041E00E94B11483E061E041E00E94B114D8
:1024500083E062E041E00E94B11480E090E0A0EAF5
:10246000B1E48B879C87AD87BE876B857C858D8526
:102470009E8520E030E04AEF54E40E941F02DC0118
:10248000CB018F839887A987BA876F8178858985E3
:102490009A8520E030E040E85FE30E94250488232D
:1024A0002CF481E090E09E838D833FC06F8178851E
:1024B00089859A8520E03FEF4FE757E40E94C503E6
:1024C00018164CF56B857C858D859E8520E030E067
:1024D00040E251E40E941F02DC01CB01BC01CD01AE
:1024E0000E944900DC01CB019E838D830FC088ECE4
:1024F00090E09C838B838B819C810197F1F79C8377
:102500008B838D819E8101979E838D838D819E819A
:10251000009769F714C06F81788589859A850E9434
:102520004900DC01CB019E838D838D819E819A833E
:10253000898389819A810197F1F79A83898382E05F
:1025400064E041E00E94B11482E065E041E00E9455
:10255000B11482E066E041E00E94B11482E067E0DD
:1025600041E00E94B11483E30E94660982E30E9465
:10257000660988E20E9466098CE00E94660981E093
:102580000E9466092E960FB6F894DEBF0FBECDBF2F
:10259000CF91DF910895DF93CF9300D00F92CDB705
:1025A000DEB79B838A8319820EC08981282F30E091
:1025B0008A819B81FC01E20FF31F80810E94BD0D87
:1025C00089818F5F89838981282F30E08A819B816F
:1025D000FC01E20FF31F8081882339F70F900F90E1
:1025E0000F90CF91DF910895DF93CF9300D000D06B
:1025F000CDB7DEB789836A838981282F30E03C8399
:102600002B838B819C8181309105D1F02B813C8182
:10261000223031052CF48B819C81009761F01DC024
:102620002B813C812230310581F08B819C8183306C
:10263000910579F012C08A8180580E9466090DC008
:102640008A8180540E94660908C08A810E946609B6
:1026500004C08A81805C0E9466090F900F900F90E1
:102660000F90CF91DF910895DF93CF9300D000D0EA
:10267000CDB7DEB789836A835C834B8389816A81A6
:102680000E94F4128B819C810E94CB120F900F90BC
:102690000F900F90CF91DF910895DF93CF93CDB737
:1026A000DEB727970FB6F894DEBF0FBECDBF9C8371
:1026B0008B836D834E832F831A8281E080939101F7
:1026C0008D81882F90E0880F991F880F991F880FA0
:1026D000991F8A838A81805C0E94660919820EC0D4
:1026E0008981282F30E08B819C81FC01E20FF31F50
:1026F00080810E94BD0D89818F5F898389818830A7
:1027000078F38E816F810E94F4128D810E94BD0D3D
:102710001092910127960FB6F894DEBF0FBECDBF81
:10272000CF91DF910895DF93CF93CDB7DEB7619757
:102730000FB6F894DEBF0FBECDBF6E877F87888B44
:10274000998B8FEF8A838A818F5F8A838E859F859D
:10275000A889B9892AE030E040E050E0BC01CD0111
:102760000E944423DC01CB018B838A81282F3327ED
:1027700027FD30958B81482F405DCE010496FC01EA
:10278000E20FF31F40838E859F85A889B9892AE0CF
:1027900030E040E050E0BC01CD010E944423DA016A
:1027A000C9018E879F87A88BB98B8E859F85A88945
:1027B000B9890097A105B10531F68A81898310C0D6
:1027C0008981282F332727FD3095CE010496FC01FF
:1027D000E20FF31F80810E94BD0D898181508983A2
:1027E000898188236CF761960FB6F894DEBF0FBE1F
:1027F000CDBFCF91DF910895DF93CF93CDB7DEB7F3
:1028000061970FB6F894DEBF0FBECDBF898B898963
:10281000882F90E09E012F5F3F4FB9014AE050E0C2
:102820000E949D23CE0101960E94CB1261960FB6A5
:10283000F894DEBF0FBECDBFCF91DF910895DF9337
:10284000CF93CDB7DEB781E00E946609CF91DF91CB
:102850000895DF93CF93CDB7DEB781E060E041E02C
:102860000E94B11481E061E041E00E94B11481E076
:1028700063E041E00E94B11481E060E040E00E942A
:10288000D01681E061E040E00E94D0160E94DC1981
:10289000CF91DF910895DF93CF93CDB7DEB781E07D
:1028A00061E040E00E94D01681E060E041E00E94DB
:1028B000D016CF91DF910895DF93CF93CDB7DEB7D8
:1028C00081E060E040E00E94D01681E061E041E0FC
:1028D0000E94D016CF91DF910895DF93CF9300D05F
:1028E000CDB7DEB789836A838981813059F481E06D
:1028F00061E040E00E94D01681E060E041E00E948B
:10290000D0161BC08981823059F481E060E040E03C
:102910000E94D01681E061E041E00E94D0160DC017
:102920008981833051F481E060E040E00E94D0165C
:1029300081E061E040E00E94D0168A81882F90E01B
:10294000A0E0B0E0BC01CD010E94A904DC01CB01F4
:10295000BC01CD010E94361A0F900F90CF91DF91EC
:102960000895DF93CF93CDB7DEB72A970FB6F894CB
:10297000DEBF0FBECDBF8A836B834C8319828B81F0
:10298000883008F0B9C18C81882309F077C08A812A
:10299000282F30E03A87298789859A8581309105EB
:1029A00059F129853A85223031052CF489859A859B
:1029B000009769F060C029853A852230310589F198
:1029C00089859A858330910509F440C054C0AAE3F3
:1029D000B0E0EAE3F0E08081482F8B81282F30E0DF
:1029E00081E090E0022E02C0880F991F0A94E2F75E
:1029F000809584238C9382C1A7E3B0E0E7E3F0E005
:102A00008081482F8B81282F30E081E090E0022EDA
:102A100002C0880F991F0A94E2F7809584238C9353
:102A20006DC1A4E3B0E0E4E3F0E08081482F8B8146
:102A3000282F30E081E090E0022E02C0880F991F1D
:102A40000A94E2F7809584238C9358C1A1E3B0E007
:102A5000E1E3F0E08081482F8B81282F30E081E096
:102A600090E0022E02C0880F991F0A94E2F7809529
:102A700084238C9343C181E0898340C18C81813060
:102A800009F072C08A81282F30E038872F838F8128
:102A900098858130910549F12F81388522303105A3
:102AA0002CF48F819885009761F05BC02F81388569
:102AB0002230310571F18F81988583309105E9F1DC
:102AC00050C0AAE3B0E0EAE3F0E08081482F8B81B8
:102AD000282F30E081E090E0022E02C0880F991F7D
:102AE0000A94E2F7842B8C9309C1A7E3B0E0E7E3F3
:102AF000F0E08081482F8B81282F30E081E090E04A
:102B0000022E02C0880F991F0A94E2F7842B8C933F
:102B1000F5C0A4E3B0E0E4E3F0E08081482F8B81CE
:102B2000282F30E081E090E0022E02C0880F991F2C
:102B30000A94E2F7842B8C93E1C0A1E3B0E0E1E3D7
:102B4000F0E08081482F8B81282F30E081E090E0F9
:102B5000022E02C0880F991F0A94E2F7842B8C93EF
:102B6000CDC081E08983CAC08C81823009F0C1C0A8
:102B70008A81282F30E03E832D838D819E81813094
:102B8000910509F43EC02D813E81223031052CF49F
:102B90008D819E81009771F0A9C02D813E812230E8
:102BA000310509F455C08D819E818330910509F46A
:102BB00076C09CC0AAE3B0E0EAE3F0E08081482F51
:102BC0008B81282F30E081E090E002C0880F991FB0
:102BD0002A95E2F7809584238C93ABE3B0E0EBE396
:102BE000F0E08081482F8B81282F30E081E090E059
:102BF000022E02C0880F991F0A94E2F7842B8C934F
:102C00007DC0A7E3B0E0E7E3F0E08081482F8B814F
:102C1000282F30E081E090E002C0880F991F2A95AC
:102C2000E2F7809584238C93A8E3B0E0E8E3F0E03A
:102C30008081482F8B81282F30E081E090E0022EA8
:102C400002C0880F991F0A94E2F7842B8C9356C018
:102C5000A4E3B0E0E4E3F0E08081482F8B81282FEB
:102C600030E081E090E002C0880F991F2A95E2F7DA
:102C7000809584238C93A5E3B0E0E5E3F0E08081C8
:102C8000482F8B81282F30E081E090E0022E02C097
:102C9000880F991F0A94E2F7842B8C932FC0A1E32D
:102CA000B0E0E1E3F0E08081482F8B81282F30E015
:102CB00081E090E002C0880F991F2A95E2F7809585
:102CC00084238C93A2E3B0E0E2E3F0E08081482F1C
:102CD0008B81282F30E081E090E0022E02C0880F27
:102CE000991F0A94E2F7842B8C9308C081E08983B2
:102CF00005C081E0898302C081E0898389812A96A9
:102D00000FB6F894DEBF0FBECDBFCF91DF9108950F
:102D1000DF93CF9300D000D00F92CDB7DEB78A8378
:102D20006B8319828A81282F30E03D832C838C812C
:102D30009D8181309105D1F02C813D81223031057A
:102D40002CF48C819D81009761F01FC02C813D8106
:102D50002230310581F08C819D818330910581F095
:102D600014C0EAE3F0E08B81808311C0E7E3F0E078
:102D70008B8180830CC0E4E3F0E08B81808307C00B
:102D8000E1E3F0E08B81808302C081E08983898167
:102D90000F900F900F900F900F90CF91DF910895AB
:102DA000DF93CF93CDB7DEB728970FB6F894DEBF89
:102DB0000FBECDBF8A836B834C8319828B81883091
:102DC00008F0F4C08C81882309F077C08A81282F0D
:102DD00030E038872F838F8198858130910559F1B4
:102DE0002F813885223031052CF48F81988500970A
:102DF00069F060C02F8138852230310589F18F81DB
:102E000098858330910509F440C054C0ABE3B0E02D
:102E1000EBE3F0E08081482F8B81282F30E081E0C8
:102E200090E0022E02C0880F991F0A94E2F7809565
:102E300084238C93BDC0A8E3B0E0E8E3F0E0808198
:102E4000482F8B81282F30E081E090E0022E02C0D5
:102E5000880F991F0A94E2F7809584238C93A8C069
:102E6000A5E3B0E0E5E3F0E08081482F8B81282FD7
:102E700030E081E090E0022E02C0880F991F0A9492
:102E8000E2F7809584238C9393C0A2E3B0E0E2E361
:102E9000F0E08081482F8B81282F30E081E090E0A6
:102EA000022E02C0880F991F0A94E2F780958423AE
:102EB0008C937EC081E089837BC08C81813009F056
:102EC00072C08A81282F30E03E832D838D819E81C0
:102ED0008130910549F12D813E81223031052CF45C
:102EE0008D819E81009761F05BC02D813E812230F3
:102EF000310571F18D819E8183309105E9F150C0DA
:102F0000ABE3B0E0EBE3F0E08081482F8B81282F2A
:102F100030E081E090E0022E02C0880F991F0A94F1
:102F2000E2F7842B8C9344C0A8E3B0E0E8E3F0E040
:102F30008081482F8B81282F30E081E090E0022EA5
:102F400002C0880F991F0A94E2F7842B8C9330C03B
:102F5000A5E3B0E0E5E3F0E08081482F8B81282FE6
:102F600030E081E090E0022E02C0880F991F0A94A1
:102F7000E2F7842B8C931CC0A2E3B0E0E2E3F0E024
:102F80008081482F8B81282F30E081E090E0022E55
:102F900002C0880F991F0A94E2F7842B8C9308C013
:102FA00081E0898305C081E0898302C081E0898353
:102FB000898128960FB6F894DEBF0FBECDBFCF91A2
:102FC000DF910895DF93CF9300D000D00F92CDB75B
:102FD000DEB78A836B8319828A81282F30E03D8394
:102FE0002C838C819D8181309105D1F02C813D8194
:102FF000223031052CF48C819D81009761F01FC037
:103000002C813D812230310581F08C819D8183307E
:10301000910581F014C0EBE3F0E08B81808311C057
:10302000E8E3F0E08B8180830CC0E5E3F0E08B8186
:10303000808307C0E2E3F0E08B81808302C081E0FF
:10304000898389810F900F900F900F900F90CF91EF
:10305000DF910895DF93CF9300D000D00F92CDB7CA
:10306000DEB78A836B8319828A81282F30E03D8303
:103070002C838C819D818130910549F12C813D818A
:10308000223031052CF48C819D81009761F05BC06A
:103090002C813D812230310571F18C819D818330FD
:1030A0009105E9F150C0ABE3B0E0EBE3F0E08081E3
:1030B000482F8B81282F30E081E090E0022E02C063
:1030C000880F991F0A94E2F784278C933EC0A8E3E7
:1030D000B0E0E8E3F0E08081482F8B81282F30E0DA
:1030E00081E090E0022E02C0880F991F0A94E2F757
:1030F00084278C932AC0A5E3B0E0E5E3F0E080816B
:10310000482F8B81282F30E081E090E0022E02C012
:10311000880F991F0A94E2F784278C9316C0A2E3C4
:10312000B0E0E2E3F0E08081482F8B81282F30E08F
:1031300081E090E0022E02C0880F991F0A94E2F706
:1031400084278C9302C081E0898389810F900F903E
:103150000F900F900F90CF91DF910895DF93CF9351
:10316000CDB7DEB727970FB6F894DEBF0FBECDBF41
:103170008A836B835D834C8319828C819D81009748
:1031800009F478C08B81883008F074C08A81282FB8
:1031900030E03F832E834E815F814130510559F1EC
:1031A0008E819F818230910534F42E813F812115DB
:1031B000310569F05CC04E815F814230510579F183
:1031C0008E819F818330910509F43DC050C0E9E3B1
:1031D000F0E08081282F30E08B81882F90E0A901DA
:1031E00002C0559547958A95E2F7CA018170EC8136
:1031F000FD81808341C0E6E3F0E08081282F30E04C
:103200008B81882F90E0A90102C0559547958A953A
:10321000E2F7CA018170EC81FD8180832DC0E3E378
:10322000F0E08081282F30E08B81882F90E0A90189
:1032300002C0559547958A95E2F7CA018170EC81E5
:10324000FD81808319C0E0E3F0E08081282F30E029
:103250008B81882F90E0A90102C0559547958A95EA
:10326000E2F7CA018170EC81FD81808305C081E0B5
:10327000898302C081E08983898127960FB6F894FB
:10328000DEBF0FBECDBFCF91DF910895DF93CF9307
:1032900000D000D000D0CDB7DEB78A837C836B83AB
:1032A00019828B819C81009709F43EC08A81282F66
:1032B00030E03E832D838D819E8181309105E1F048
:1032C0002D813E81223031052CF48D819E81009725
:1032D00061F027C02D813E8122303105A1F08D8122
:1032E0009E8183309105B1F01CC0E9E3F0E080815C
:1032F000EB81FC8180831AC0E6E3F0E08081EB8102
:10330000FC81808313C0E3E3F0E08081EB81FC81EA
:1033100080830CC0E0E3F0E08081EB81FC8180835E
:1033200005C081E0898302C081E089838981269676
:103330000FB6F894DEBF0FBECDBFCF91DF910895D9
:10334000DF93CF93CDB7DEB70E94170780E062E02E
:1033500040E00E94B114CF91DF910895DF93CF93A5
:1033600000D00F92CDB7DEB782E00E9448079A8363
:10337000898389819A81CC01A0E0B0E0BC01CD01B4
:103380000E94A904DC01CB01BC01CD0127ED33EA89
:1033900040E050E40E941903DC01CB01BC01CD01E7
:1033A0000E944900DC01CB018B838B810F900F9031
:1033B0000F90CF91DF910895DF93CF93CDB7DEB714
:1033C000A3E5B0E0E3E5F0E0808180648C93A3E5C1
:1033D000B0E0E3E5F0E0808188608C93A3E5B0E0A5
:1033E000E3E5F0E080818F7E8C93A3E5B0E0E3E538
:1033F000F0E0808180628C93A3E5B0E0E3E5F0E04B
:1034000080818E7F8C93A3E5B0E0E3E5F0E08081DE
:1034100082608C93A3E5B0E0E3E5F0E080818B7FF0
:103420008C9380E090E0A0E0B1E48093AB019093B6
:10343000AC01A093AD01B093AE01CF91DF9108959F
:10344000DF93CF9300D000D000D0CDB7DEB7698333
:103450007A838B839C835E834D8326960FB6F89484
:10346000DEBF0FBECDBFCF91DF9108950F931F93A5
:10347000DF93CF93CDB7DEB728970FB6F894DEBFB2
:103480000FBECDBF6D837E838F8398876D817E81D4
:103490008F81988520E030E040E853E40E941F02CD
:1034A000DC01CB01BC01CD0120E030E048EC52E46E
:1034B0000E941903DC01CB0189839A83AB83BC830F
:1034C0000CE510E069817A818B819C810E94490022
:1034D000DC01CB01F801808328960FB6F894DEBF9B
:1034E0000FBECDBFCF91DF911F910F9108951F9215
:1034F0000F920FB60F9211242F933F934F935F9328
:103500006F937F938F939F93AF93BF93EF93FF93AB
:10351000DF93CF93CDB7DEB7809192019091930165
:1035200001969093930180939201809192019091E2
:1035300093019C0140E050E08091A7019091A80187
:10354000A091A901B091AA01281739074A075B0782
:10355000A1F4E2E5F0E08091A3019091A401A09193
:10356000A501B091A6018083E0919A01F0919B01A1
:1035700009951092930110929201CF91DF91FF91E2
:10358000EF91BF91AF919F918F917F916F915F91DB
:103590004F913F912F910F900FBE0F901F90189554
:1035A0001F920F920FB60F9211242F933F934F93B8
:1035B0005F936F937F938F939F93AF93BF93EF939B
:1035C000FF93DF93CF93CDB7DEB7809194019091B5
:1035D00095010196909395018093940180919401B7
:1035E000909195019C0140E050E08091B70190914D
:1035F000B801A091B901B091BA01281739074A075B
:103600005B0749F41092950110929401E0919A01A0
:10361000F0919B010995CF91DF91FF91EF91BF91BF
:10362000AF919F918F917F916F915F914F913F915A
:103630002F910F900FBE0F901F901895DF93CF938F
:10364000CDB7DEB7A5E4B0E0E5E4F0E080818064CA
:103650008C93A5E4B0E0E5E4F0E08081877F8C9373
:10366000A5E4B0E0E5E4F0E080818F7E8C93A5E4F2
:10367000B0E0E5E4F0E0808180628C93A5E4B0E006
:10368000E5E4F0E0808181608C93A5E4B0E0E5E4BE
:10369000F0E080818D7F8C93A5E4B0E0E5E4F0E07C
:1036A000808184608C9380E090E0A0E8B4E4809313
:1036B000B3019093B401A093B501B093B601CF913B
:1036C000DF910895DF93CF9300D000D000D0CDB725
:1036D000DEB769837A838B839C835E834D832696D2
:1036E0000FB6F894DEBF0FBECDBFCF91DF91089526
:1036F0000F931F93DF93CF93CDB7DEB728970FB605
:10370000F894DEBF0FBECDBF6D837E838F83988715
:103710006D817E818F81988520E030E84FEF53E402
:103720000E941F02DC01CB01BC01CD0120E030E092
:1037300048EC52E40E941903DC01CB0189839A838F
:10374000AB83BC8303E410E069817A818B819C8127
:103750000E944900DC01CB01F801808328960FB656
:10376000F894DEBF0FBECDBFCF91DF911F910F91B7
:1037700008951F920F920FB60F9211242F933F932B
:103780004F935F936F937F938F939F93AF93BF9369
:10379000EF93FF93DF93CF93CDB7DEB78091960180
:1037A0009091970101969093970180939601809153
:1037B0009601909197019C0140E050E08091AF010B
:1037C0009091B001A091B101B091B20128173907D1
:1037D0004A075B07A1F4E4E4F0E08091BF01909117
:1037E000C001A091C101B091C2018083E0919E010E
:1037F000F0919F0109951092970110929601CF9137
:10380000DF91FF91EF91BF91AF919F918F917F9148
:103810006F915F914F913F912F910F900FBE0F903D
:103820001F901895DF93CF93CDB7DEB780919801A5
:1038300090919901019690939901809398018091BC
:103840009801909199019C0140E050E08091BB016A
:103850009091BC01A091BD01B091BE01281739071C
:103860004A075B0749F4E0919E01F0919F01099599
:103870001092990110929801CF91DF910895DF93F2
:10388000CF93CDB7DEB729970FB6F894DEBF0FBE42
:10389000CDBF89836A834B838981282F30E03987A4
:1038A0002887888599858730910509F46BC128851B
:1038B0003985283031054CF5888599858330910507
:1038C00009F4C7C028853985243031058CF48885F2
:1038D00099858130910509F47CC02885398522308D
:1038E00031050CF096C0888599850097C9F150C2C2
:1038F000288539852530310509F404C188859985E5
:10390000863091050CF01EC1C4C0288539852B3046
:10391000310509F4AEC1888599858C3091056CF428
:10392000288539852930310509F469C1888599854B
:103930008A3091050CF080C145C1288539852E302B
:10394000310509F4ECC1888599858F30910509F41A
:1039500003C2288539852C30310509F4A7C118C266
:10396000AFE4B0E0EFE4F0E080818E7F8C93AFE4D1
:10397000B0E0EFE4F0E080818D7F8C93AEE4B0E0C6
:10398000EEE4F0E08081877F8C93AEE4B0E0EEE47B
:10399000F0E080818F7E8C93A9E5B0E0E9E5F0E06E
:1039A000808184608C93A9E5B0E0E9E5F0E0808156
:1039B000877F8C93A9E5B0E0E9E5F0E080818F7E18
:1039C0008C93A9E5B0E0E9E5F0E080818F7D8C93F0
:1039D000DFC1AFE4B0E0EFE4F0E0808181608C9380
:1039E000AFE4B0E0EFE4F0E080818D7F8C93AEE453
:1039F000B0E0EEE4F0E08081877F8C93AEE4B0E04D
:103A0000EEE4F0E080818F7E8C9381E08093A201D0
:103A1000BFC1AFE4B0E0EFE4F0E080818E7F8C9333
:103A2000AFE4B0E0EFE4F0E0808182608C93AEE43C
:103A3000B0E0EEE4F0E08081877F8C93AEE4B0E00C
:103A4000EEE4F0E080818F7E8C9382E08093A2018F
:103A50009FC1AFE4B0E0EFE4F0E0808181608C933F
:103A6000AFE4B0E0EFE4F0E0808182608C93AEE4FC
:103A7000B0E0EEE4F0E08081877F8C93AEE4B0E0CC
:103A8000EEE4F0E080818F7E8C9383E08093A2014E
:103A90007FC1AFE4B0E0EFE4F0E080818E7F8C93F3
:103AA000AFE4B0E0EFE4F0E080818D7F8C93AEE492
:103AB000B0E0EEE4F0E0808188608C93AEE4B0E0AA
:103AC000EEE4F0E080818F7E8C93A9E5B0E0E9E53B
:103AD000F0E080818B7F8C93A9E5B0E0E9E5F0E030
:103AE0008081877F8C93A9E5B0E0E9E5F0E08081F3
:103AF00080618C93A9E5B0E0E9E5F0E080818F7DFD
:103B00008C9346C1AFE4B0E0EFE4F0E080818160E7
:103B10008C93AFE4B0E0EFE4F0E080818D7F8C9394
:103B2000AEE4B0E0EEE4F0E0808188608C93AEE437
:103B3000B0E0EEE4F0E080818F7E8C9385E08093AE
:103B4000A20126C1AFE4B0E0EFE4F0E080818E7F17
:103B50008C93AFE4B0E0EFE4F0E0808182608C937E
:103B6000AEE4B0E0EEE4F0E0808188608C93AEE4F7
:103B7000B0E0EEE4F0E080818F7E8C9386E080936D
:103B8000A20106C1AFE4B0E0EFE4F0E08081816023
:103B90008C93AFE4B0E0EFE4F0E0808182608C933E
:103BA000AEE4B0E0EEE4F0E0808188608C93AEE4B7
:103BB000B0E0EEE4F0E080818F7E8C9387E080932C
:103BC000A201E6C0AFE4B0E0EFE4F0E080818E7FD8
:103BD0008C93AFE4B0E0EFE4F0E080818D7F8C93D4
:103BE000AEE4B0E0EEE4F0E08081877F8C93AEE459
:103BF000B0E0EEE4F0E0808180618C93C9C0AFE476
:103C0000B0E0EFE4F0E0808181608C93AFE4B0E05D
:103C1000EFE4F0E080818D7F8C93AEE4B0E0EEE4E1
:103C2000F0E08081877F8C93AEE4B0E0EEE4F0E0DA
:103C3000808180618C93ACC0AFE4B0E0EFE4F0E051
:103C400080818E7F8C93AFE4B0E0EFE4F0E0808180
:103C500082608C93AEE4B0E0EEE4F0E08081877F98
:103C60008C93AEE4B0E0EEE4F0E0808180618C9370
:103C70008FC0AFE4B0E0EFE4F0E0808181608C932E
:103C8000AFE4B0E0EFE4F0E0808182608C93AEE4DA
:103C9000B0E0EEE4F0E08081877F8C93AEE4B0E0AA
:103CA000EEE4F0E0808180618C9372C0AFE4B0E01C
:103CB000EFE4F0E080818E7F8C93AFE4B0E0EFE43E
:103CC000F0E0808182608C93AEE4B0E0EEE4F0E05E
:103CD000808188608C93AEE4B0E0EEE4F0E0808117
:103CE0008F7E8C93A9E5B0E0E9E5F0E080818B7FE1
:103CF0008C93A9E5B0E0E9E5F0E0808188608C93E1
:103D0000A9E5B0E0E9E5F0E0808180618C93A9E568
:103D1000B0E0E9E5F0E080818F7D8C9339C0AFE4BD
:103D2000B0E0EFE4F0E080818E7F8C93AFE4B0E010
:103D3000EFE4F0E0808182608C93AEE4B0E0EEE4EA
:103D4000F0E0808188608C93AEE4B0E0EEE4F0E0D7
:103D5000808180618C931CC0AFE4B0E0EFE4F0E0C0
:103D6000808181608C93AFE4B0E0EFE4F0E080818B
:103D700082608C93AEE4B0E0EEE4F0E08081886095
:103D80008C93AEE4B0E0EEE4F0E0808180618C934F
:103D90008A81282F30E03F832E838E819F8181305E
:103DA000910521F12E813F81223031052CF48E8145
:103DB0009F81009761F046C02E813F8122303105FE
:103DC00021F18E819F818330910571F13BC0AFE479
:103DD000B0E0EFE4F0E080818F7B8C93AFE4B0E063
:103DE000EFE4F0E080818F778C932CC0AFE4B0E0FB
:103DF000EFE4F0E0808180648C93AFE4B0E0EFE426
:103E0000F0E080818F778C931DC0AFE4B0E0EFE4E9
:103E1000F0E080818F7B8C93AFE4B0E0EFE4F0E0E2
:103E2000808180688C930EC0AFE4B0E0EFE4F0E0F6
:103E3000808180648C93AFE4B0E0EFE4F0E08081B7
:103E400080688C938B81282F30E03D832C838C817C
:103E50009D818130910521F12C813D8122303105F8
:103E60002CF48C819D81009761F046C02C813D81AE
:103E70002230310521F18C819D818330910571F1D2
:103E80003BC0AFE4B0E0EFE4F0E080818F7E8C9344
:103E9000AFE4B0E0EFE4F0E080818F7D8C932CC044
:103EA000AFE4B0E0EFE4F0E0808180618C93AFE4B8
:103EB000B0E0EFE4F0E080818F7D8C931DC0AFE433
:103EC000B0E0EFE4F0E080818F7E8C93AFE4B0E06F
:103ED000EFE4F0E0808180628C930EC0AFE4B0E04C
:103EE000EFE4F0E0808180618C93AFE4B0E0EFE438
:103EF000F0E0808180628C93AEE4B0E0EEE4F0E02C
:103F0000808181608C93AEE4B0E0EEE4F0E08081EB
:103F10008D7F8C93AEE4B0E0EEE4F0E080818460CD
:103F20008C9329960FB6F894DEBF0FBECDBFCF910C
:103F3000DF910895DF93CF9300D000D00F92CDB7DB
:103F4000DEB78B838091A201282F30E03D832C8344
:103F50004C815D814330510509F45BC08C819D81AA
:103F6000843091055CF42C813D8121303105C9F00C
:103F70004C815D814230510581F1ABC08C819D81C6
:103F80008630910509F475C02C813D8127303105BB
:103F900009F484C04C815D814530510509F455C058
:103FA00098C08B81282F30E08EEF91E0AC01249FE8
:103FB000C001259F900D349F900D112424E630E020
:103FC000B9010E941D23CB019A838983EAE4F0E0C2
:103FD00089819A81918380837CC08B81282F30E0F6
:103FE0008EEF93E0AC01249FC001259F900D349F7C
:103FF000900D112424E630E0B9010E941D23CB016D
:104000009A838983EAE4F0E089819A8191838083AD
:1040100060C08B81282F30E08EEF97E0AC01249FA9
:10402000C001259F900D349F900D112424E630E0AF
:10403000B9010E941D23CB019A838983EAE4F0E051
:1040400089819A819183808344C08B81882F90E0FD
:10405000982F882724E630E0B9010E943123CB0154
:104060009A838983EAE4F0E089819A81918380834D
:1040700030C08B81882F90E0982F8827990F24E6F5
:1040800030E0B9010E943123CB019A838983EAE4AD
:10409000F0E089819A81918380831BC08B81282FD6
:1040A00030E08FEF93E0AC01249FC001259F900D7D
:1040B000349F900D112424E630E0B9010E941D23A5
:1040C000CB019A838983EAE4F0E089819A81918324
:1040D00080830F900F900F900F900F90CF91DF91F2
:1040E0000895DF93CF9300D000D00F92CDB7DEB705
:1040F0008B838091A201282F30E03D832C834C815B
:104100005D814330510509F45BC08C819D81843011
:1041100091055CF42C813D8121303105C9F04C8141
:104120005D814230510581F1ABC08C819D8186302B
:10413000910509F475C02C813D812730310509F4C2
:1041400084C04C815D814530510509F455C098C04B
:104150008B81282F30E08EEF91E0AC01249FC001CD
:10416000259F900D349F900D112424E630E0B90175
:104170000E941D23CB019A838983E8E4F0E08981C2
:104180009A81918380837CC08B81282F30E08EEFD1
:1041900093E0AC01249FC001259F900D349F900DAA
:1041A000112424E630E0B9010E941D23CB019A833B
:1041B0008983E8E4F0E089819A819183808360C0FB
:1041C0008B81282F30E08EEF97E0AC01249FC00157
:1041D000259F900D349F900D112424E630E0B90105
:1041E0000E941D23CB019A838983E8E4F0E0898152
:1041F0009A819183808344C08B81882F90E0982F8F
:10420000882724E630E0B9010E943123CB019A834C
:104210008983E8E4F0E089819A819183808330C0CA
:104220008B81882F90E0982F8827990F24E630E023
:10423000B9010E943123CB019A838983E8E4F0E03D
:1042400089819A81918380831BC08B81282F30E0E4
:104250008FEF93E0AC01249FC001259F900D349F08
:10426000900D112424E630E0B9010E941D23CB01FA
:104270009A838983E8E4F0E089819A81918380833D
:104280000F900F900F900F900F90CF91DF910895A6
:10429000DF93CF9300D0CDB7DEB79A838983EBE469
:1042A000F0E089819A81892F99278083EAE4F0E000
:1042B000898180830F900F90CF91DF910895DF93D4
:1042C000CF9300D0CDB7DEB79A838983E9E4F0E0DD
:1042D00089819A81892F99278083E8E4F0E0898198
:1042E00080830F900F90CF91DF910895DF93CF934C
:1042F00000D0CDB7DEB79A838983E7E4F0E0898107
:104300009A81892F99278083E6E4F0E08981808370
:104310000F900F90CF91DF910895DF93CF93CDB79A
:10432000DEB7AEE4B0E0EEE4F0E080818B7F8C930A
:10433000AEE4B0E0EEE4F0E080818D7F8C93AEE4FB
:10434000B0E0EEE4F0E080818E7F8C93CF91DF913E
:104350000895DF93CF93CDB7DEB7AEE4B0E0EEE4DF
:10436000F0E0808184608C93AEE4B0E0EEE4F0E0B5
:10437000808181608C93CF91DF910895DF93CF93FB
:1043800000D0CDB7DEB79A83898389819A819093D3
:104390009D0180939C010F900F90CF91DF91089524
:1043A000DF93CF93CDB7DEB7AEE4B0E0EEE4F0E05C
:1043B000808180648C93A9E5B0E0E9E5F0E080813C
:1043C00080628C93AEE4B0E0EEE4F0E080818E7F1A
:1043D0008C93AEE4B0E0EEE4F0E0808182608C93F8
:1043E000AEE4B0E0EEE4F0E080818B7F8C93ECE40F
:1043F000F0E011821082E6E4F0E011821082CF91A9
:10440000DF910895DF93CF930F92CDB7DEB7898305
:104410008981813041F4AEE4B0E0EEE4F0E08081E7
:1044200080648C930AC08981882339F4AEE4B0E0BB
:10443000EEE4F0E080818F7B8C930F90CF91DF9141
:104440000895DF93CF93CDB7DEB7E6E4F0E0808147
:104450009181CF91DF910895DF93CF9300D0CDB7B5
:10446000DEB79A83898389819A819093A101809391
:10447000A0010F900F90CF91DF910895DF93CF931C
:10448000CDB7DEB7ECE4F0E011821082CF91DF917E
:1044900008951F920F920FB60F9211242F933F93FE
:1044A0004F935F936F937F938F939F93AF93BF933C
:1044B000EF93FF93DF93CF93CDB7DEB78091A00149
:1044C0009091A101009729F0E091A001F091A10144
:1044D0000995CF91DF91FF91EF91BF91AF919F919E
:1044E0008F917F916F915F914F913F912F910F909D
:1044F0000FBE0F901F9018951F920F920FB60F923C
:1045000011242F933F934F935F936F937F938F93D8
:104510009F93AF93BF93EF93FF93DF93CF93CDB769
:10452000DEB780919C0190919D01009729F0E09168
:104530009C01F0919D010995CF91DF91FF91EF9141
:10454000BF91AF919F918F917F916F915F914F91AB
:104550003F912F910F900FBE0F901F901895DF93F2
:10456000CF930F92CDB7DEB70E94A0190E942914F5
:104570000E94141220E630E080E063E0A9010E946E
:10458000341328E630E081E063E0A9010E9434138F
:104590000E94AE19898381E06AE00E94F412898149
:1045A000843620F089810E94FC1306C089810E9414
:1045B000FC1380E20E94BD0D89818E3140F424E716
:1045C00030E080E06AE0A9010E943413E1CF8981E4
:1045D0008E3158F089818C3340F428E730E080E058
:1045E0006AE0A9010E943413D3CF89818C3358F03B
:1045F00089818A3540F428E730E080E06AE0A9014B
:104600000E943413C5CF89818A3558F08981883753
:1046100040F428E730E080E06AE0A9010E9434130A
:10462000B7CF8981883708F4B3CF28E730E080E03E
:104630006AE0A9010E943413ABCFAA1BBB1B51E156
:1046400007C0AA1FBB1FA617B70710F0A61BB70B02
:10465000881F991F5A95A9F780959095BC01CD01A7
:10466000089597FB092E07260AD077FD04D0E5DFD1
:1046700006D000201AF4709561957F4F0895F6F7E3
:10468000909581959F4F0895A1E21A2EAA1BBB1BFE
:10469000FD010DC0AA1FBB1FEE1FFF1FA217B3070E
:1046A000E407F50720F0A21BB30BE40BF50B661F24
:1046B000771F881F991F1A9469F7609570958095E8
:1046C00090959B01AC01BD01CF0108952F923F92BF
:1046D0004F925F926F927F928F929F92AF92BF9212
:1046E000CF92DF92EF92FF920F931F93CF93DF93BE
:1046F000CDB7DEB7CA1BDB0B0FB6F894DEBF0FBE1B
:10470000CDBF09942A88398848885F846E847D8467
:104710008C849B84AA84B984C884DF80EE80FD8069
:104720000C811B81AA81B981CE0FD11D0FB6F894DF
:10473000DEBF0FBECDBFED010895FB019F01E894E0
:104740004230C4F04532B4F44A3029F497FB1EF4E9
:10475000909581959F4F642F77270E941D23805D40
:104760008A330CF0895D8193CB010097A1F716F491
:104770005DE251931082C9010C94BE23DC01FC015F
:10478000672F71917723E1F7329704C07C916D9385
:1047900070836291AE17BF07C8F30895F894FFCFF6
:1047A00046414E206973200054656D70203D2020E5
:1047B000202043004F4646004F4E200000000000DE
:1047C00000000000000102020303030304040404C8
:1047D000040404040505050505050505050505058D
:1047E000050505050606060606060606060606066D
:1047F0000606060606060606060606060606060659
:10480000060606060707070707070707070707073C
:104810000707070707070707070707070707070728
:104820000707070707070707070707070707070718
:104830000707070707070707070707070707070708
:1048400007070707080808080808080808080808EC
:1048500008080808080808080808080808080808D8
:1048600008080808080808080808080808080808C8
:1048700008080808080808080808080808080808B8
:1048800008080808080808080808080808080808A8
:104890000808080808080808080808080808080898
:1048A0000808080808080808080808080808080888
:1048B0000808080808080808080808080808080878
:0448C00008080808D4
:00000001FF
