:100000000C942A000C9447000C9447000C946F0D3C
:100010000C94290D0C94890F0C94B20F0C9447008A
:100020000C9447000C9447000C94B30C0C946D0C8A
:100030000C9447000C9447000C9447000C94470024
:100040000C9464070C9447000C9447000C944700F0
:100050000C94470011241FBECFE5D4E0DEBFCDBF16
:1000600011E0A0E6B0E0EEEBF1E202C005900D92E7
:10007000A438B107D9F711E0A4E8B1E001C01D929E
:10008000A33CB107E1F70E94DB0F0C94DD100C9448
:100090000000EF92FF920F931F937B018C0120E0F1
:1000A00030E040E05FE40E94C50388238CF0C80183
:1000B000B70120E030E040E05FE40E94C1010E940F
:1000C000F5039B01AC01205030404040504806C031
:1000D000C801B7010E94F5039B01AC01B901CA0137
:1000E0001F910F91FF90EF900895A0E0B0E0EBE733
:1000F000F0E00C947510DC012B01FA019C91923018
:1001000008F439C1EB018881823008F433C194309E
:1001100069F4843009F02FC111969C91119789815F
:10012000981709F428C1ACE7B0E025C1843009F480
:1001300021C18230A9F4923009F01DC19A01AD01AC
:1001400088E0EA010990AE01E90109929E0181501F
:10015000C1F7E201898111969C918923818308C1AD
:10016000923009F407C112962D903C901397EB0141
:100170008A819B811496AD90BD90CD90DC901797AD
:10018000EC80FD800E811F819101281B390BB90184
:1001900037FF04C066277727621B730B6032710537
:1001A0000CF061C0121613066CF537014801062EDB
:1001B00004C096948794779467940A94D2F721E0C8
:1001C00030E040E050E004C0220F331F441F551FB1
:1001D0006A95D2F721503040404050402E213F21B7
:1001E00040235123211531054105510521F021E01E
:1001F00030E040E050E079018A01E628F72808293C
:1002000019293CC0232BD1F1260E371E350146019A
:10021000062E04C096948794779467940A94D2F734
:1002200021E030E040E050E004C0220F331F441FC3
:10023000551F6A95D2F721503040404050402A2146
:100240003B214C215D21211531054105510521F04E
:1002500021E030E040E050E059016A01A628B728CB
:10026000C828D9280BC0821593052CF01C01AA249C
:10027000BB24650103C0EE24FF24870111969C91E5
:10028000D20111968C91981709F445C0992339F041
:10029000A80197012A193B094C095D0906C0A6016E
:1002A00095012E193F09400B510B57FD08C01182D3
:1002B0003382228224833583468357831DC081E0A5
:1002C00081833382228288279927DC01821B930B4A
:1002D000A40BB50B84839583A683B7830DC0220F2F
:1002E000331F441F551F24833583468357838281E0
:1002F000938101979383828324813581468157813D
:10030000DA01C9010197A109B1098F5F9F4FAF4F72
:10031000BF4328F30BC0918333822282EA0CFB1C7B
:100320000C1D1D1DE482F5820683178383E0808304
:10033000248135814681578157FF1AC0C901AA27F8
:1003400097FDA095BA2F81709070A070B0705695EF
:10035000479537952795822B932BA42BB52B848318
:100360009583A683B7838281938101969383828349
:10037000DF0101C0D201CD01CDB7DEB7E2E10C94BF
:100380009110A0E2B0E0E7ECF1E00C9481106983F9
:100390007A838B839C832D833E834F835887E9E048
:1003A000EE2EF12CEC0EFD1ECE010196B7010E943F
:1003B000E6058E010F5E1F4FCE010596B8010E9423
:1003C000E6058A8991E089278A8BC701B801AE01C9
:1003D000475E5F4F0E9475000E941105A096E6E0FF
:1003E0000C949D10A0E2B0E0E8EFF1E00C948110D5
:1003F00069837A838B839C832D833E834F835887C5
:10040000F9E0EF2EF12CEC0EFD1ECE010196B701A6
:100410000E94E6058E010F5E1F4FCE010596B801C2
:100420000E94E605C701B801AE01475E5F4F0E941A
:1004300075000E941105A096E6E00C949D10A0E2C4
:10044000B0E0E5E2F2E00C94751069837A838B8367
:100450009C832D833E834F835887CE010196BE0136
:10046000675F7F4F0E94E605CE010596BE016F5E75
:100470007F4F0E94E6059985923088F08989823005
:10048000C8F0943019F4823051F404C0843029F457
:10049000923081F48CE790E0C6C0923049F420E0BD
:1004A0009A858A89981321E02A87CE010996BBC0D4
:1004B000823049F420E09A858A89981321E02A8BBA
:1004C000CE014196B0C02D843E844F8458886D88FB
:1004D0007E888F88988CEE24FF248701AA24BB2471
:1004E000650140E050E060E070E0E0E0F0E0C10174
:1004F00081709070892BE9F0E60CF71C081D191D1E
:100500009A01AB012A0D3B1D4C1D5D1D80E090E062
:10051000A0E0B0E0E614F7040805190520F481E036
:1005200090E0A0E0B0E0BA01A901480F591F6A1F8E
:100530007B1FAA0CBB1CCC1CDD1C97FE08C081E0F5
:1005400090E0A0E0B0E0A82AB92ACA2ADB2A3196B6
:10055000E032F10549F0660C771C881C991C569412
:10056000479437942794C3CFFA85EA892B893C892D
:100570008B859C85280F391F2E5F3F4F17C0CA01FE
:1005800081709070892B61F016950795F794E79428
:1005900080E090E0A0E0B0E8E82AF92A0A2B1B2BC3
:1005A00076956795579547952F5F3F4F77FDE7CF36
:1005B0000CC0440F551F661F771F17FD4160EE0CDE
:1005C000FF1C001F111F21503040403090E05907A0
:1005D00090E0690790E4790760F32B8F3C8FDB0193
:1005E000CA018F779070A070B07080349105A1051A
:1005F000B10561F447FD0AC0E114F10401051105DC
:1006000029F0405C5F4F6F4F7F4F40781A8EFE1786
:1006100011F081E08A8F4D8F5E8F6F8F78A383E01A
:10062000898FCE0149960E941105A096E2E10C94B3
:100630009110A8E1B0E0EFE1F3E00C947D10698344
:100640007A838B839C832D833E834F835887B9E0C5
:10065000EB2EF12CEC0EFD1ECE010196B7010E948F
:10066000E6058E010F5E1F4FCE010596B8010E9470
:10067000E6052985223008F47EC03989323010F42D
:10068000B8017CC08A859A8989278A87243011F02D
:10069000223031F4231709F06EC06CE770E06EC0B1
:1006A000343039F41D861E861F86188A1C861B86E8
:1006B00004C0323021F484E08987B7015FC02B8504
:1006C0003C858B899C89281B390B3C872B87ED84C3
:1006D000FE840F851889AD88BE88CF88D88CEA142F
:1006E000FB040C051D0540F4EE0CFF1C001F111F40
:1006F000215030403C872B8720E030E040E050E044
:1007000080E090E0A0E0B0E460E070E0EA14FB0478
:100710000C051D0540F0282B392B4A2B5B2BEA18C2
:10072000FB080C091D09B695A79597958795EE0CC2
:10073000FF1C001F111F6F5F7F4F6F31710531F775
:10074000DA01C9018F779070A070B0708034910584
:10075000A105B10561F427FD0AC0E114F10401050A
:10076000110529F0205C3F4F4F4F5F4F20782D87B8
:100770003E874F87588BBE01675F7F4FCB010E943A
:1007800011056896EAE00C949910A8E1B0E0EBEC52
:10079000F3E00C94811069837A838B839C832D838F
:1007A0003E834F83588789E0E82EF12CEC0EFD1E26
:1007B000CE010196B7010E94E6058E010F5E1F4F24
:1007C000CE010596B8010E94E6058985823040F089
:1007D0008989823028F0C701B8010E945E0601C0F5
:1007E0008FEF6896E6E00C949D10ACE0B0E0EBEF84
:1007F000F3E00C94851069837A838B839C83CE010C
:100800000196BE016B5F7F4F0E94E6058D818230AD
:1008100061F1823050F1843021F48E81882351F1CE
:100820002EC02F81388537FD20C06E812F313105D4
:100830001CF06623F9F023C08EE190E0821B930B3D
:1008400029853A854B855C8504C056954795379533
:1008500027958A95D2F76623B1F05095409530954B
:1008600021953F4F4F4F5F4F0EC020E030E040E0FA
:1008700050E009C02FEF3FEF4FEF5FE704C020E0EB
:1008800030E040E050E8B901CA012C96E2E00C9457
:10089000A110A8E0B0E0EFE4F4E00C947D107B013F
:1008A0008C01611571058105910519F482E0898338
:1008B00060C083E089838EE1C82ED12CDC82CB829C
:1008C000ED82FE820F831887C801B7010E94C2041F
:1008D000FC013197F7FF3BC0222733272E1B3F0B2C
:1008E00057016801022E04C0D694C794B794A79408
:1008F0000A94D2F740E050E060E070E081E090E0E0
:10090000A0E0B0E004C0880F991FAA1FBB1F2A9562
:10091000D2F70197A109B1098E219F21A023B1230C
:100920000097A105B10521F041E050E060E070E0E2
:100930004A295B296C297D294D835E836F837887E3
:100940008EE190E08E1B9F0B9C838B8312C03097AF
:1009500081F00E2E04C0EE0CFF1C001F111F0A9424
:10096000D2F7ED82FE820F831887CE1ADF0ADC826F
:10097000CB821A82CE0101960E9411052896EAE0E8
:100980000C949910EF92FF920F931F937B018C01AF
:1009900080E0E81680E0F80681E0080780E01807AC
:1009A00088F48FEFE816F1040105110531F028F005
:1009B00088E090E0A0E0B0E017C080E090E0A0E028
:1009C000B0E012C080E0E81680E0F80680E008079A
:1009D00081E0180728F088E190E0A0E0B0E004C0D2
:1009E00080E190E0A0E0B0E020E230E040E050E0C4
:1009F000281B390B4A0B5B0B04C016950795F7941F
:100A0000E7948A95D2F7F701EC57FF4F8081281BB6
:100A1000310941095109C9011F910F91FF90EF90D0
:100A20000895DF92EF92FF920F931F93FC01E480F1
:100A3000F58006811781D1808081823048F480E082
:100A400090E0A0E1B0E0E82AF92A0A2B1B2BA5C010
:100A5000843009F49FC0823021F4EE24FF24870102
:100A600005C0E114F1040105110519F4E0E0F0E01E
:100A700096C0628173819FEF623879070CF05BC08A
:100A800022E83FEF261B370B2A3131052CF020E0FE
:100A900030E040E050E02AC0B801A701022E04C0B7
:100AA00076956795579547950A94D2F781E090E03F
:100AB000A0E0B0E004C0880F991FAA1FBB1F2A95B1
:100AC000D2F70197A109B1098E219F21A023B1235B
:100AD0000097A105B10521F081E090E0A0E0B0E031
:100AE0009A01AB01282B392B4A2B5B2BDA01C90168
:100AF0008F779070A070B07080349105A105B1051A
:100B000039F427FF09C0205C3F4F4F4F5F4F04C0AF
:100B1000215C3F4F4F4F5F4FE0E0F0E02030A0E01E
:100B20003A07A0E04A07A0E45A0710F0E1E0F0E03D
:100B300079018A0127C06038710564F5FB01E1582D
:100B4000FF4FD801C7018F779070A070B0708034CC
:100B50009105A105B10539F4E7FE0DC080E490E0F0
:100B6000A0E0B0E004C08FE390E0A0E0B0E0E80EC9
:100B7000F91E0A1F1B1F17FF05C016950795F7944E
:100B8000E794319687E016950795F794E7948A9550
:100B9000D1F705C0EE24FF248701EFEFF0E06E2FC0
:100BA000679566276795902F9F77D794DD24D79414
:100BB0008E2F8695492F462B582F5D29B701CA01E4
:100BC0001F910F91FF90EF90DF900895FC01DB01E2
:100BD000408151812281622F6F7770E0221F22278E
:100BE000221F9381892F880F822B282F30E0991F95
:100BF0009927991F11969C93119721153105A9F5F5
:100C0000411551056105710511F482E037C082E894
:100C10009FEF13969C938E9312979A01AB0167E016
:100C2000220F331F441F551F6A95D1F783E08C9321
:100C30000DC0220F331F441F551F12968D919C919A
:100C40001397019713969C938E931297203080E010
:100C5000380780E0480780E4580758F314962D932E
:100C60003D934D935C93179708952F3F310579F489
:100C7000411551056105710519F484E08C930895BF
:100C800064FF03C081E08C9312C01C9210C02F57E8
:100C9000304013963C932E93129783E08C9387E019
:100CA000440F551F661F771F8A95D1F770641496FD
:100CB0004D935D936D937C93179708951F93DC017B
:100CC000FB019C91923008F447C08081823008F487
:100CD00043C0943051F411961C91843099F5818170
:100CE000682F70E0611B71093FC0843021F09230A1
:100CF00031F48230B9F18181882389F12DC01196B8
:100D00001C9111978230F1F081811817D9F4129655
:100D10002D913C911397828193818217930794F0D0
:100D200028173907BCF014968D919D910D90BC91B8
:100D3000A02D2481358146815781281739074A071C
:100D40005B0718F4112341F00AC082179307A40728
:100D5000B50740F4112319F061E070E005C06FEFB2
:100D60007FEF02C060E070E0CB011F9108953E9AD2
:100D70003F983D9887B1887F87B987B1836087B9ED
:100D8000379A089597B1907E97B997B1982B97B9F4
:100D9000369A349BFECF349A24B135B1C9010895F7
:100DA000982FFB0180918601882351F581E0809383
:100DB000860187B1807E87B987B1892B87B9369A3A
:100DC00080E090E0A0E0B0E003C00196A11DB11D5D
:100DD000349909C0803523EC920720E0A20720E077
:100DE000B20799F70DC08055934CA040B04041F038
:100DF000349A84B195B180831092860180E0089581
:100E000081E00895982F80918601882311F081E078
:100E1000089561157105D1F041155105B9F081E0D2
:100E200080938601109290017093850160938401F4
:100E3000509388014093870187B1807E87B987B13D
:100E4000892B87B9369A339A80E0089582E0089515
:100E5000DC01009711F482E00895809186018823D7
:100E600029F481E08093860180E0089581E08093F9
:100E70009001ED91FC911197F0938E01E0938D011B
:100E800012968D919C91139790938A01809389017A
:100E900014968C91149780938B0110928C01159667
:100EA0008D919C9116979093880180938701109261
:100EB0008F0187B1807E87B987B19081892B87B9EF
:100EC000369A339A81E008951F920F920FB60F92CF
:100ED00011242F933F934F935F936F937F938F933F
:100EE0009F93AF93BF93EF93FF93809190018823DB
:100EF00041F484B195B1E0918401F0918501808342
:100F00001DC0813091F520918F0144B155B1822FE0
:100F100090E0880F991FE0918901F0918A01E80F14
:100F2000F91F518340832F5F20938F0130E0809120
:100F30008B0190918C018217930749F410928601DE
:100F4000E0918701F0918801099533980EC087B12F
:100F5000807E87B997B1E0918D01F0918E01E20F0B
:100F6000F31F8081982B97B9369AFF91EF91BF912B
:100F7000AF919F918F917F916F915F914F913F9131
:100F80002F910F900FBE0F901F901895FF920F9307
:100F90001F93F82E83E060E041E00E94180B83E08D
:100FA00061E040E00E94180B00ED17E0C8010197D6
:100FB000F1F783E062E041E00E94180BC80101975D
:100FC000F1F74F2D4295417083E063E00E94180BCA
:100FD0004F2D42954695417083E064E00E94180BC6
:100FE0004F2D429546954695417083E065E00E94FD
:100FF000180B4F2D441F4427441F83E066E00E94D6
:10100000180BC8010197F1F783E062E040E00E940D
:10101000180BC8010197F1F783E062E041E00E94FC
:10102000180BC8010197F1F74F2D417083E063E081
:101030000E94180B4F2D4695417083E064E00E949A
:10104000180BF694F6944F2D417083E065E00E94F2
:10105000180BF69481E0F82283E066E04F2D0E94A1
:10106000180BC8010197F1F783E062E040E00E94AD
:10107000180BC8010197F1F71F910F91FF90089588
:101080009F92AF92BF92CF92DF92EF92FF920F9317
:101090001F93DF93CF93CDB7DEB72A970FB6F8949F
:1010A000DEBF0FBECDBF7B018C015E010894A11C89
:1010B000B11C65019C2C9A18C801B7012AE030E0E8
:1010C00040E050E00E945310605DF60161936F01B3
:1010D000C801B7012AE030E040E050E00E94531020
:1010E000C901DA017C018D01E114F104010511054A
:1010F00009F7892D992787FD90958E010F5F1F4F66
:10110000080F191FF92CF80180810E94C607FA9474
:1011100001501040FFEFFF16B1F72A960FB6F89472
:10112000DEBF0FBECDBFCF91DF911F910F91FF901A
:10113000EF90DF90CF90BF90AF909F9008951F9356
:10114000CF93DF93EC0110E003C00E94C6071F5F3E
:10115000FE01E10FF11D80818823B9F7DF91CF9166
:101160001F9108950F931F93DF93CF93CDB7DEB7F1
:1011700060970FB6F894DEBF0FBECDBF90E08E0132
:101180000F5F1F4FB8014AE050E00E94AC10C80149
:101190000E949F0860960FB6F894DEBF0FBECDBFC9
:1011A000CF91DF911F910F910895FF920F931F939D
:1011B000F82E83E060E040E00E94180B83E061E0DD
:1011C00040E00E94180B00ED17E0C8010197F1F70D
:1011D00083E062E041E00E94180BC8010197F1F73B
:1011E0004F2D4295417083E063E00E94180B4F2D14
:1011F00042954695417083E064E00E94180B4F2DA4
:10120000429546954695417083E065E00E94180B33
:101210004F2D441F4427441F83E066E00E94180BB3
:10122000C8010197F1F783E062E040E00E94180BEB
:10123000C8010197F1F783E062E041E00E94180BDA
:10124000C8010197F1F74F2D417083E063E00E94E0
:10125000180B4F2D4695417083E064E00E94180BF7
:10126000F694F6944F2D417083E065E00E94180BD0
:10127000F69481E0F82283E066E04F2D0E94180B7F
:10128000C8010197F1F783E062E040E00E94180B8B
:10129000C8010197F1F71F910F91FF90089581E028
:1012A0000E94D5080895813051F0813028F08230B5
:1012B00049F0833079F40AC0862F805804C0862F05
:1012C000805401C0862F0E94D5080895862F805C27
:1012D0000E94D50808950F931F938A010E94530915
:1012E000C8010E949F081F910F910895DF92EF920D
:1012F000FF920F931F93CF93DF938C01F62EE42E72
:10130000D22E81E080939101862F880F880F880F5D
:10131000805C0E94D508C0E0D0E0F801EC0FFD1F12
:1013200080810E94C6072196C830D105B1F78E2D65
:101330006D2D0E9453098F2D0E94C60710929101B6
:10134000DF91CF911F910F91FF90EF90DF90089563
:1013500083E060E041E00E943D0A83E061E041E01B
:101360000E943D0A83E062E041E00E943D0A80E481
:101370009CE90197F1F783E063E041E00E943D0AB8
:1013800083E064E041E00E943D0A83E065E041E0E3
:101390000E943D0A83E066E041E00E943D0A83E34B
:1013A0000E94D50882E30E94D50888E20E94D508F1
:1013B0008CE00E94D50881E00E94D508089581E064
:1013C00060E040E00E94180B81E061E041E00E9493
:1013D000180B089581E061E040E00E94180B81E065
:1013E00060E041E00E94180B08951F93162F813092
:1013F00039F461E040E00E94180B81E060E009C030
:10140000823049F481E060E040E00E94180B81E006
:1014100061E041E00AC0833051F481E060E040E0E7
:101420000E94180B81E061E040E00E94180B612FE0
:1014300070E080E090E00E9449040E945D0C1F91E2
:10144000089581E060E041E00E943D0A81E061E0B2
:1014500041E00E943D0A81E063E041E00E943D0AD4
:1014600081E060E040E00E94180B81E061E040E034
:101470000E94180B0E943A0C0895683008F0C2C010
:101480004423D1F58130A1F0813030F08230E1F099
:10149000833009F0B7C024C02AB381E090E002C0D5
:1014A000880F991F6A95E2F7809582238ABBA8C0AE
:1014B00027B381E090E002C0880F991F6A95E2F798
:1014C0008095822387BB9CC024B381E090E002C05A
:1014D000880F991F6A95E2F78095822384BB90C09C
:1014E00021B381E090E002C0880F991F6A95E2F76E
:1014F0008095822381BB84C04130B1F5813099F061
:10150000813030F08230D1F0833009F07BC021C0CF
:101510002AB381E090E002C0880F991F6A95E2F734
:10152000282B2ABB6DC027B381E090E002C0880F52
:10153000991F6A95E2F7282B27BB62C024B381E08C
:1015400090E002C0880F991F6A95E2F7282B24BB10
:1015500057C021B381E090E002C0880F991F6A95BF
:10156000E2F7282B21BB4CC0423009F04BC0813040
:10157000C1F0813030F0823021F1833009F042C077
:1015800030C03AB381E090E002C0880F991F6A959D
:10159000E2F7282F209523232ABB2BB3822B8BBB6A
:1015A0002FC037B381E090E002C0880F991F6A9581
:1015B000E2F7282F2095232327BB28B3822B88BB53
:1015C0001FC034B381E090E002C0880F991F6A9574
:1015D000E2F7282F2095232324BB25B3822B85BB3C
:1015E0000FC031B381E090E002C0880F991F6A9567
:1015F000E2F7282F2095232321BB22B3822B82BB25
:1016000080E0089581E00895813051F0813030F01C
:10161000823041F0833049F081E008956ABB03C015
:1016200067BB01C064BB80E0089561BB80E00895A2
:10163000683008F074C04423D1F58130A1F08130C6
:1016400030F08230E1F0833009F069C024C02BB360
:1016500081E090E002C0880F991F6A95E2F78095BB
:1016600082238BBB5AC028B381E090E002C0880F70
:10167000991F6A95E2F78095822388BB4EC025B3F7
:1016800081E090E002C0880F991F6A95E2F780958B
:10169000822385BB42C022B381E090E002C0880F64
:1016A000991F6A95E2F78095822382BB36C041304C
:1016B000B1F5813091F0813028F08230C9F083306B
:1016C00071F521C02BB381E090E002C0880F991F13
:1016D0006A95E2F7282B2BBB20C028B381E090E06D
:1016E00002C0880F991F6A95E2F7282B28BB15C006
:1016F00025B381E090E002C0880F991F6A95E2F758
:10170000282B25BB0AC022B381E090E002C0880FDD
:10171000991F6A95E2F7282B22BB80E0089581E0AB
:101720000895813051F0813030F0823041F08330C3
:1017300049F081E008956BBB03C068BB01C065BB85
:1017400080E0089562BB80E00895813099F0813097
:1017500030F08230D1F0833021F181E008952BB355
:1017600081E090E002C0880F991F6A95E2F7282770
:101770002BBB15C028B381E090E002C0880F991FF1
:101780006A95E2F7282728BB0AC025B381E090E0DC
:1017900002C0880F991F6A95E2F7282725BB80E0D1
:1017A000089522B381E090E002C0880F991F6A95E6
:1017B000E2F7282722BB80E00895FA014115510580
:1017C000E1F06830D0F4813049F0813028F0823087
:1017D00039F0833091F406C089B305C086B303C0E5
:1017E00083B301C080B390E002C0959587956A9558
:1017F000E2F78170808380E0089581E00895FB0125
:101800006115710599F0813049F0813028F08230FE
:1018100039F0833059F406C089B305C086B303C0DC
:1018200083B301C080B3808380E0089581E0089590
:1018300082E00E94C206A0E0B0E0BC01CD010E949F
:10184000490426EF38E24CE950E40E941F0220E0F0
:1018500030E040E251E40E9419030E944900DC019B
:10186000CB0108950E94B70680E062E040E00E944C
:101870003D0A089583B7806483BF83B7886083BFC0
:1018800083B78F7E83BF83B7806283BF83B78E7F2A
:1018900083BF83B7826083BF83B78B7F83BF80E0C2
:1018A00090E0A0E0B1E48093AB019093AC01A093F1
:1018B000AD01B093AE010895089520E030E04FE708
:1018C00053E40E941F0220E030E048EC52E40E9402
:1018D00019030E9449006CBF08951F920F920FB622
:1018E0000F9211242F933F934F935F936F937F93A6
:1018F0008F939F93AF93BF93EF93FF938091980142
:101900009091990101969093990180939801A0E09C
:10191000B0E02091A7013091A8014091A901509118
:10192000AA01281739074A075B0761F48091A301D0
:1019300082BFE0919A01F0919B0109951092990163
:1019400010929801FF91EF91BF91AF919F918F916C
:101950007F916F915F914F913F912F910F900FBEAB
:101960000F901F9018951F920F920FB60F9211248F
:101970002F933F934F935F936F937F938F939F9397
:10198000AF93BF93EF93FF9380919601909197014E
:1019900001969093970180939601A0E0B0E020918A
:1019A000B7013091B8014091B9015091BA0128179F
:1019B00039074A075B0749F4109297011092960184
:1019C000E0919A01F0919B010995FF91EF91BF91F0
:1019D000AF919F918F917F916F915F914F913F91C7
:1019E0002F910F900FBE0F901F90189585B58064B2
:1019F00085BD85B5877F85BD85B58F7E85BD85B560
:101A0000806285BD85B5816085BD85B58D7F85BDCD
:101A100085B5846085BD80E090E0A0E8B4E4809363
:101A2000B3019093B401A093B501B093B6010895AA
:101A3000089520E030E84FEF53E40E941F0220E0B9
:101A400030E048EC52E40E9419030E94490063BD53
:101A500008951F920F920FB60F9211242F933F9368
:101A60004F935F936F937F938F939F93AF93BF93A6
:101A7000EF93FF938091940190919501019690933B
:101A8000950180939401A0E0B0E02091AF013091E6
:101A9000B0014091B1015091B201281739074A07AE
:101AA0005B0761F48091BF0184BDE0919E01F091DC
:101AB0009F0109951092950110929401FF91EF9169
:101AC000BF91AF919F918F917F916F915F914F9156
:101AD0003F912F910F900FBE0F901F9018958091FE
:101AE00092019091930101969093930180939201BA
:101AF000A0E0B0E02091BB013091BC014091BD015C
:101B00005091BE01281739074A075B0749F4E09155
:101B10009E01F0919F0109951092930110929201FC
:101B20000895982F873009F48AC0883088F483306C
:101B300009F44DC0843028F48130A9F18230C8F511
:101B40001DC0853009F465C0863008F068C048C003
:101B50008B3009F48FC08C3038F4893009F481C09F
:101B60008A3008F084C07AC08E3009F49EC08F306D
:101B700009F49EC08C3009F0A7C085C08FB58E7F58
:101B80008FBD8FB58D7F8FBD8EB5877F8EBD8EB596
:101B90008F7E8EBD89B7846089BF89B7877F89BFF3
:101BA00089B78F7E31C08FB581608FBD8FB58D7F36
:101BB00013C08FB58E7F8FBD8FB582608FBD8EB500
:101BC000877F8EBD8EB58F7E8EBD82E035C08FB58E
:101BD00081608FBD8FB582608FBD8EB5877F37C026
:101BE0008FB58E7F8FBD8FB58D7F8FBD8EB5886091
:101BF0008EBD8EB58F7E8EBD89B78B7F89BF89B72D
:101C0000877F89BF89B7806189BF89B78F7D89BF89
:101C10005BC08FB581608FBD8FB58D7F15C08FB5CF
:101C20008E7F8FBD8FB582608FBD8EB588608EBD73
:101C30008EB58F7E8EBD86E08093A20145C08FB5A4
:101C400081608FBD8FB582608FBD8EB588608EBD7F
:101C50008EB58F7E8EBD9093A20136C08FB58E7FDC
:101C600002C08FB581608FBD8FB58D7F08C08FB5E5
:101C70008E7F02C08FB581608FBD8FB582608FBDB2
:101C80008EB5877F1DC08FB58E7F8FBD8FB582606B
:101C90008FBD8EB588608EBD8EB58F7E8EBD89B7A7
:101CA0008B7F89BF89B78860ACCF8FB58E7F02C02C
:101CB0008FB581608FBD8FB582608FBD8EB5886016
:101CC0008EBD8EB580618EBD613051F0613028F0DF
:101CD000623061F0633099F40CC08FB58F7B02C025
:101CE0008FB580648FBD8FB58F7708C08FB58F7B20
:101CF00002C08FB580648FBD8FB580688FBD4130C5
:101D000051F0413028F0423061F0433099F40CC07A
:101D10008FB58F7E02C08FB580618FBD8FB58F7DEF
:101D200008C08FB58F7E02C08FB580618FBD8FB523
:101D300080628FBD8EB581608EBD8EB58D7F8EBD6C
:101D40008EB584608EBD0895982F8091A201833056
:101D500029F1843030F4813059F0823009F040C0EC
:101D60000CC0863011F1873049F18530C9F51BC0B0
:101D7000292F30E08EEF91E004C0292F30E08EEF64
:101D800093E0AC01249FC001259F900D349F900DDE
:101D9000112464E670E00E942C100DC0292F30E061
:101DA0008EEF97E0EECF80E002C080E0990F64E60E
:101DB00070E00E9440107BBD6ABD0895292F30E07D
:101DC0008FEF93E0AC01249FC001259F900D349FBD
:101DD000900D112464E670E00E942C107BBD6ABD5A
:101DE0000895982F8091A201833029F1843030F436
:101DF000813059F0823009F040C00CC0863011F1BA
:101E0000873049F18530C9F51BC0292F30E08EEFAE
:101E100091E004C0292F30E08EEF93E0AC01249FC5
:101E2000C001259F900D349F900D112464E670E051
:101E30000E942C100DC0292F30E08EEF97E0EECFDE
:101E400080E002C080E0990F64E670E00E944010DC
:101E500079BD68BD0895292F30E08FEF93E0AC0184
:101E6000249FC001259F900D349F900D112464E69E
:101E700070E00E942C1079BD68BD08959BBD8ABD9D
:101E8000089599BD88BD089597BD86BD08958EB506
:101E90008B7F8EBD8EB58D7F8EBD8EB58E7F8EBDB8
:101EA00008958EB584608EBD8EB581608EBD089517
:101EB00090939D0180939C0108958EB580648EBDA2
:101EC00089B7806289BF8EB58E7F8EBD8EB58260E8
:101ED0008EBD8EB58B7F8EBD1DBC1CBC17BC16BCC9
:101EE0000895813021F48EB580648EBD08958823D5
:101EF00019F48EB58F7B8EBD089526B537B5C9010F
:101F000008959093A1018093A00108951DBC1CBC6D
:101F100008951F920F920FB60F9211242F933F93A3
:101F20004F935F936F937F938F939F93AF93BF93E1
:101F3000EF93FF93E091A001F091A101309709F098
:101F40000995FF91EF91BF91AF919F918F917F91F3
:101F50006F915F914F913F912F910F900FBE0F9016
:101F60001F9018951F920F920FB60F9211242F9366
:101F70003F934F935F936F937F938F939F93AF9311
:101F8000BF93EF93FF93E0919C01F0919D013097F7
:101F900009F00995FF91EF91BF91AF919F918F91BA
:101FA0007F916F915F914F913F912F910F900FBE55
:101FB0000F901F9018951F930E94320C0E94210AC7
:101FC0000E94A80980E063E040E650E00E946B09AF
:101FD00081E063E048E650E00E946B090E94180C23
:101FE000182F81E06AE00E945309143620F0812FF7
:101FF0000E94B20811C0812F0E94B20880E20E94A4
:10200000C6071E3148F483E060E00E94F50980E0D5
:102010006AE044E750E0E0CF812F8E518E3118F412
:1020200082E069E112C0812F8C538E3118F482E076
:1020300062E30BC0812F8A558E3118F482E06BE485
:1020400004C0183758F282E064E60E94F50980E087
:102050006AE048E750E0C0CFAA1BBB1B51E107C0B4
:10206000AA1FBB1FA617B70710F0A61BB70B881F28
:10207000991F5A95A9F780959095BC01CD010895B7
:1020800097FB092E07260AD077FD04D0E5DF06D09E
:1020900000201AF4709561957F4F0895F6F790959A
:1020A00081959F4F0895A1E21A2EAA1BBB1BFD012B
:1020B0000DC0AA1FBB1FEE1FFF1FA217B307E40727
:1020C000F50720F0A21BB30BE40BF50B661F771F7F
:1020D000881F991F1A9469F760957095809590955F
:1020E0009B01AC01BD01CF0108952F923F924F9209
:1020F0005F926F927F928F929F92AF92BF92CF9298
:10210000DF92EF92FF920F931F93CF93DF93CDB7A0
:10211000DEB7CA1BDB0B0FB6F894DEBF0FBECDBF18
:1021200009942A88398848885F846E847D848C84E9
:102130009B84AA84B984C884DF80EE80FD800C81F2
:102140001B81AA81B981CE0FD11D0FB6F894DEBFD5
:102150000FBECDBFED010895FB019F01E894423011
:10216000C4F04532B4F44A3029F497FB1EF490953C
:1021700081959F4F642F77270E942C10805D8A33B2
:102180000CF0895D8193CB010097A1F716F45DE215
:1021900051931082C9010C94CD10DC01FC01672F12
:1021A00071917723E1F7329704C07C916D9370832E
:0E21B0006291AE17BF07C8F30895F894FFCFF1
:1021BE0046414E206973200054656D70203D2020ED
:1021CE00202043004F4646004F4E200000000000E6
:1021DE0000000000000102020303030304040404D0
:1021EE000404040405050505050505050505050595
:1021FE000505050506060606060606060606060675
:10220E000606060606060606060606060606060660
:10221E000606060607070707070707070707070744
:10222E000707070707070707070707070707070730
:10223E000707070707070707070707070707070720
:10224E000707070707070707070707070707070710
:10225E0007070707080808080808080808080808F4
:10226E0008080808080808080808080808080808E0
:10227E0008080808080808080808080808080808D0
:10228E0008080808080808080808080808080808C0
:10229E0008080808080808080808080808080808B0
:1022AE0008080808080808080808080808080808A0
:1022BE000808080808080808080808080808080890
:1022CE000808080808080808080808080808080880
:0422DE0008080808DC
:00000001FF
